{
	"compilerInput": "{\"language\":\"Solidity\",\"sources\":{\"contracts/SecureComm.sol\":{\"content\":\"// SPDX-License-Identifier: MIT\\r\\npragma solidity ^0.8.20;\\r\\n\\r\\ncontract SecureComm {\\r\\n\\r\\n    struct Message {\\r\\n        bytes32 hash;\\r\\n        bytes signature;\\r\\n        uint256 timestamp;\\r\\n        address sender;\\r\\n    }\\r\\n\\r\\n    Message[] public messages;\\r\\n\\r\\n    event MessageStored(\\r\\n        bytes32 hash,\\r\\n        address indexed sender,\\r\\n        uint256 timestamp\\r\\n    );\\r\\n\\r\\n    function storeMessage(\\r\\n        bytes32 _hash,\\r\\n        bytes memory _signature\\r\\n    ) public {\\r\\n        messages.push(\\r\\n            Message(\\r\\n                _hash,\\r\\n                _signature,\\r\\n                block.timestamp,\\r\\n                msg.sender\\r\\n            )\\r\\n        );\\r\\n\\r\\n        emit MessageStored(_hash, msg.sender, block.timestamp);\\r\\n    }\\r\\n\\r\\n    function getMessage(uint256 index)\\r\\n        public\\r\\n        view\\r\\n        returns (\\r\\n            bytes32,\\r\\n            bytes memory,\\r\\n            uint256,\\r\\n            address\\r\\n        )\\r\\n    {\\r\\n        Message memory m = messages[index];\\r\\n        return (\\r\\n            m.hash,\\r\\n            m.signature,\\r\\n            m.timestamp,\\r\\n            m.sender\\r\\n        );\\r\\n    }\\r\\n\\r\\n    function getMessageCount() public view returns (uint256) {\\r\\n        return messages.length;\\r\\n    }\\r\\n}\"}},\"settings\":{\"optimizer\":{\"enabled\":false,\"runs\":200},\"outputSelection\":{\"*\":{\"\":[\"ast\"],\"*\":[\"abi\",\"metadata\",\"devdoc\",\"userdoc\",\"storageLayout\",\"evm.legacyAssembly\",\"evm.bytecode\",\"evm.deployedBytecode\",\"evm.methodIdentifiers\",\"evm.gasEstimates\",\"evm.assembly\"]}},\"remappings\":[]}}",
	"name": "SecureComm",
	"bytecode": {
		"linkReferences": {},
		"object": "608060405234801561000f575f80fd5b50610b0c8061001d5f395ff3fe608060405234801561000f575f80fd5b506004361061004a575f3560e01c806309aa37ba1461004e5780630d80fefd1461006a578063319339161461009d57806386f79edb146100bb575b5f80fd5b610068600480360381019061006391906105c7565b6100ee565b005b610084600480360381019061007f9190610654565b610210565b6040516100949493929190610756565b60405180910390f35b6100a56102ef565b6040516100b291906107a0565b60405180910390f35b6100d560048036038101906100d09190610654565b6102fa565b6040516100e59493929190610756565b60405180910390f35b5f60405180608001604052808481526020018381526020014281526020013373ffffffffffffffffffffffffffffffffffffffff16815250908060018154018082558091505060019003905f5260205f2090600402015f909190919091505f820151815f0155602082015181600101908161016991906109b3565b50604082015181600201556060820151816003015f6101000a81548173ffffffffffffffffffffffffffffffffffffffff021916908373ffffffffffffffffffffffffffffffffffffffff16021790555050503373ffffffffffffffffffffffffffffffffffffffff167ffc0130f045b99ddc021ab5370f3ebcc300526e38305dc6bbf89079a83abd3eb88342604051610204929190610a82565b60405180910390a25050565b5f818154811061021e575f80fd5b905f5260205f2090600402015f91509050805f015490806001018054610243906107e6565b80601f016020809104026020016040519081016040528092919081815260200182805461026f906107e6565b80156102ba5780601f10610291576101008083540402835291602001916102ba565b820191905f5260205f20905b81548152906001019060200180831161029d57829003601f168201915b505050505090806002015490806003015f9054906101000a900473ffffffffffffffffffffffffffffffffffffffff16905084565b5f8080549050905090565b5f60605f805f80868154811061031357610312610aa9565b5b905f5260205f2090600402016040518060800160405290815f8201548152602001600182018054610343906107e6565b80601f016020809104026020016040519081016040528092919081815260200182805461036f906107e6565b80156103ba5780601f10610391576101008083540402835291602001916103ba565b820191905f5260205f20905b81548152906001019060200180831161039d57829003601f168201915b5050505050815260200160028201548152602001600382015f9054906101000a900473ffffffffffffffffffffffffffffffffffffffff1673ffffffffffffffffffffffffffffffffffffffff1673ffffffffffffffffffffffffffffffffffffffff16815250509050805f01518160200151826040015183606001519450945094509450509193509193565b5f604051905090565b5f80fd5b5f80fd5b5f819050919050565b61046a81610458565b8114610474575f80fd5b50565b5f8135905061048581610461565b92915050565b5f80fd5b5f80fd5b5f601f19601f8301169050919050565b7f4e487b71000000000000000000000000000000000000000000000000000000005f52604160045260245ffd5b6104d982610493565b810181811067ffffffffffffffff821117156104f8576104f76104a3565b5b80604052505050565b5f61050a610447565b905061051682826104d0565b919050565b5f67ffffffffffffffff821115610535576105346104a3565b5b61053e82610493565b9050602081019050919050565b828183375f83830152505050565b5f61056b6105668461051b565b610501565b9050828152602081018484840111156105875761058661048f565b5b61059284828561054b565b509392505050565b5f82601f8301126105ae576105ad61048b565b5b81356105be848260208601610559565b91505092915050565b5f80604083850312156105dd576105dc610450565b5b5f6105ea85828601610477565b925050602083013567ffffffffffffffff81111561060b5761060a610454565b5b6106178582860161059a565b9150509250929050565b5f819050919050565b61063381610621565b811461063d575f80fd5b50565b5f8135905061064e8161062a565b92915050565b5f6020828403121561066957610668610450565b5b5f61067684828501610640565b91505092915050565b61068881610458565b82525050565b5f81519050919050565b5f82825260208201905092915050565b5f5b838110156106c55780820151818401526020810190506106aa565b5f8484015250505050565b5f6106da8261068e565b6106e48185610698565b93506106f48185602086016106a8565b6106fd81610493565b840191505092915050565b61071181610621565b82525050565b5f73ffffffffffffffffffffffffffffffffffffffff82169050919050565b5f61074082610717565b9050919050565b61075081610736565b82525050565b5f6080820190506107695f83018761067f565b818103602083015261077b81866106d0565b905061078a6040830185610708565b6107976060830184610747565b95945050505050565b5f6020820190506107b35f830184610708565b92915050565b7f4e487b71000000000000000000000000000000000000000000000000000000005f52602260045260245ffd5b5f60028204905060018216806107fd57607f821691505b6020821081036108105761080f6107b9565b5b50919050565b5f819050815f5260205f209050919050565b5f6020601f8301049050919050565b5f82821b905092915050565b5f600883026108727fffffffffffffffffffffffffffffffffffffffffffffffffffffffffffffffff82610837565b61087c8683610837565b95508019841693508086168417925050509392505050565b5f819050919050565b5f6108b76108b26108ad84610621565b610894565b610621565b9050919050565b5f819050919050565b6108d08361089d565b6108e46108dc826108be565b848454610843565b825550505050565b5f90565b6108f86108ec565b6109038184846108c7565b505050565b5b818110156109265761091b5f826108f0565b600181019050610909565b5050565b601f82111561096b5761093c81610816565b61094584610828565b81016020851015610954578190505b61096861096085610828565b830182610908565b50505b505050565b5f82821c905092915050565b5f61098b5f1984600802610970565b1980831691505092915050565b5f6109a3838361097c565b9150826002028217905092915050565b6109bc8261068e565b67ffffffffffffffff8111156109d5576109d46104a3565b5b6109df82546107e6565b6109ea82828561092a565b5f60209050601f831160018114610a1b575f8415610a09578287015190505b610a138582610998565b865550610a7a565b601f198416610a2986610816565b5f5b82811015610a5057848901518255600182019150602085019450602081019050610a2b565b86831015610a6d5784890151610a69601f89168261097c565b8355505b6001600288020188555050505b505050505050565b5f604082019050610a955f83018561067f565b610aa26020830184610708565b9392505050565b7f4e487b71000000000000000000000000000000000000000000000000000000005f52603260045260245ffdfea2646970667358221220f22564a6b57a8ec5d61cd6889d7974429bed3b5f15493dc451e0e5a61580b85f64736f6c63430008140033",
		"opcodes": "PUSH1 0x80 PUSH1 0x40 MSTORE CALLVALUE DUP1 ISZERO PUSH2 0xF JUMPI PUSH0 DUP1 REVERT JUMPDEST POP PUSH2 0xB0C DUP1 PUSH2 0x1D PUSH0 CODECOPY PUSH0 RETURN INVALID PUSH1 0x80 PUSH1 0x40 MSTORE CALLVALUE DUP1 ISZERO PUSH2 0xF JUMPI PUSH0 DUP1 REVERT JUMPDEST POP PUSH1 0x4 CALLDATASIZE LT PUSH2 0x4A JUMPI PUSH0 CALLDATALOAD PUSH1 0xE0 SHR DUP1 PUSH4 0x9AA37BA EQ PUSH2 0x4E JUMPI DUP1 PUSH4 0xD80FEFD EQ PUSH2 0x6A JUMPI DUP1 PUSH4 0x31933916 EQ PUSH2 0x9D JUMPI DUP1 PUSH4 0x86F79EDB EQ PUSH2 0xBB JUMPI JUMPDEST PUSH0 DUP1 REVERT JUMPDEST PUSH2 0x68 PUSH1 0x4 DUP1 CALLDATASIZE SUB DUP2 ADD SWAP1 PUSH2 0x63 SWAP2 SWAP1 PUSH2 0x5C7 JUMP JUMPDEST PUSH2 0xEE JUMP JUMPDEST STOP JUMPDEST PUSH2 0x84 PUSH1 0x4 DUP1 CALLDATASIZE SUB DUP2 ADD SWAP1 PUSH2 0x7F SWAP2 SWAP1 PUSH2 0x654 JUMP JUMPDEST PUSH2 0x210 JUMP JUMPDEST PUSH1 0x40 MLOAD PUSH2 0x94 SWAP5 SWAP4 SWAP3 SWAP2 SWAP1 PUSH2 0x756 JUMP JUMPDEST PUSH1 0x40 MLOAD DUP1 SWAP2 SUB SWAP1 RETURN JUMPDEST PUSH2 0xA5 PUSH2 0x2EF JUMP JUMPDEST PUSH1 0x40 MLOAD PUSH2 0xB2 SWAP2 SWAP1 PUSH2 0x7A0 JUMP JUMPDEST PUSH1 0x40 MLOAD DUP1 SWAP2 SUB SWAP1 RETURN JUMPDEST PUSH2 0xD5 PUSH1 0x4 DUP1 CALLDATASIZE SUB DUP2 ADD SWAP1 PUSH2 0xD0 SWAP2 SWAP1 PUSH2 0x654 JUMP JUMPDEST PUSH2 0x2FA JUMP JUMPDEST PUSH1 0x40 MLOAD PUSH2 0xE5 SWAP5 SWAP4 SWAP3 SWAP2 SWAP1 PUSH2 0x756 JUMP JUMPDEST PUSH1 0x40 MLOAD DUP1 SWAP2 SUB SWAP1 RETURN JUMPDEST PUSH0 PUSH1 0x40 MLOAD DUP1 PUSH1 0x80 ADD PUSH1 0x40 MSTORE DUP1 DUP5 DUP2 MSTORE PUSH1 0x20 ADD DUP4 DUP2 MSTORE PUSH1 0x20 ADD TIMESTAMP DUP2 MSTORE PUSH1 0x20 ADD CALLER PUSH20 0xFFFFFFFFFFFFFFFFFFFFFFFFFFFFFFFFFFFFFFFF AND DUP2 MSTORE POP SWAP1 DUP1 PUSH1 0x1 DUP2 SLOAD ADD DUP1 DUP3 SSTORE DUP1 SWAP2 POP POP PUSH1 0x1 SWAP1 SUB SWAP1 PUSH0 MSTORE PUSH1 0x20 PUSH0 KECCAK256 SWAP1 PUSH1 0x4 MUL ADD PUSH0 SWAP1 SWAP2 SWAP1 SWAP2 SWAP1 SWAP2 POP PUSH0 DUP3 ADD MLOAD DUP2 PUSH0 ADD SSTORE PUSH1 0x20 DUP3 ADD MLOAD DUP2 PUSH1 0x1 ADD SWAP1 DUP2 PUSH2 0x169 SWAP2 SWAP1 PUSH2 0x9B3 JUMP JUMPDEST POP PUSH1 0x40 DUP3 ADD MLOAD DUP2 PUSH1 0x2 ADD SSTORE PUSH1 0x60 DUP3 ADD MLOAD DUP2 PUSH1 0x3 ADD PUSH0 PUSH2 0x100 EXP DUP2 SLOAD DUP2 PUSH20 0xFFFFFFFFFFFFFFFFFFFFFFFFFFFFFFFFFFFFFFFF MUL NOT AND SWAP1 DUP4 PUSH20 0xFFFFFFFFFFFFFFFFFFFFFFFFFFFFFFFFFFFFFFFF AND MUL OR SWAP1 SSTORE POP POP POP CALLER PUSH20 0xFFFFFFFFFFFFFFFFFFFFFFFFFFFFFFFFFFFFFFFF AND PUSH32 0xFC0130F045B99DDC021AB5370F3EBCC300526E38305DC6BBF89079A83ABD3EB8 DUP4 TIMESTAMP PUSH1 0x40 MLOAD PUSH2 0x204 SWAP3 SWAP2 SWAP1 PUSH2 0xA82 JUMP JUMPDEST PUSH1 0x40 MLOAD DUP1 SWAP2 SUB SWAP1 LOG2 POP POP JUMP JUMPDEST PUSH0 DUP2 DUP2 SLOAD DUP2 LT PUSH2 0x21E JUMPI PUSH0 DUP1 REVERT JUMPDEST SWAP1 PUSH0 MSTORE PUSH1 0x20 PUSH0 KECCAK256 SWAP1 PUSH1 0x4 MUL ADD PUSH0 SWAP2 POP SWAP1 POP DUP1 PUSH0 ADD SLOAD SWAP1 DUP1 PUSH1 0x1 ADD DUP1 SLOAD PUSH2 0x243 SWAP1 PUSH2 0x7E6 JUMP JUMPDEST DUP1 PUSH1 0x1F ADD PUSH1 0x20 DUP1 SWAP2 DIV MUL PUSH1 0x20 ADD PUSH1 0x40 MLOAD SWAP1 DUP2 ADD PUSH1 0x40 MSTORE DUP1 SWAP3 SWAP2 SWAP1 DUP2 DUP2 MSTORE PUSH1 0x20 ADD DUP3 DUP1 SLOAD PUSH2 0x26F SWAP1 PUSH2 0x7E6 JUMP JUMPDEST DUP1 ISZERO PUSH2 0x2BA JUMPI DUP1 PUSH1 0x1F LT PUSH2 0x291 JUMPI PUSH2 0x100 DUP1 DUP4 SLOAD DIV MUL DUP4 MSTORE SWAP2 PUSH1 0x20 ADD SWAP2 PUSH2 0x2BA JUMP JUMPDEST DUP3 ADD SWAP2 SWAP1 PUSH0 MSTORE PUSH1 0x20 PUSH0 KECCAK256 SWAP1 JUMPDEST DUP2 SLOAD DUP2 MSTORE SWAP1 PUSH1 0x1 ADD SWAP1 PUSH1 0x20 ADD DUP1 DUP4 GT PUSH2 0x29D JUMPI DUP3 SWAP1 SUB PUSH1 0x1F AND DUP3 ADD SWAP2 JUMPDEST POP POP POP POP POP SWAP1 DUP1 PUSH1 0x2 ADD SLOAD SWAP1 DUP1 PUSH1 0x3 ADD PUSH0 SWAP1 SLOAD SWAP1 PUSH2 0x100 EXP SWAP1 DIV PUSH20 0xFFFFFFFFFFFFFFFFFFFFFFFFFFFFFFFFFFFFFFFF AND SWAP1 POP DUP5 JUMP JUMPDEST PUSH0 DUP1 DUP1 SLOAD SWAP1 POP SWAP1 POP SWAP1 JUMP JUMPDEST PUSH0 PUSH1 0x60 PUSH0 DUP1 PUSH0 DUP1 DUP7 DUP2 SLOAD DUP2 LT PUSH2 0x313 JUMPI PUSH2 0x312 PUSH2 0xAA9 JUMP JUMPDEST JUMPDEST SWAP1 PUSH0 MSTORE PUSH1 0x20 PUSH0 KECCAK256 SWAP1 PUSH1 0x4 MUL ADD PUSH1 0x40 MLOAD DUP1 PUSH1 0x80 ADD PUSH1 0x40 MSTORE SWAP1 DUP2 PUSH0 DUP3 ADD SLOAD DUP2 MSTORE PUSH1 0x20 ADD PUSH1 0x1 DUP3 ADD DUP1 SLOAD PUSH2 0x343 SWAP1 PUSH2 0x7E6 JUMP JUMPDEST DUP1 PUSH1 0x1F ADD PUSH1 0x20 DUP1 SWAP2 DIV MUL PUSH1 0x20 ADD PUSH1 0x40 MLOAD SWAP1 DUP2 ADD PUSH1 0x40 MSTORE DUP1 SWAP3 SWAP2 SWAP1 DUP2 DUP2 MSTORE PUSH1 0x20 ADD DUP3 DUP1 SLOAD PUSH2 0x36F SWAP1 PUSH2 0x7E6 JUMP JUMPDEST DUP1 ISZERO PUSH2 0x3BA JUMPI DUP1 PUSH1 0x1F LT PUSH2 0x391 JUMPI PUSH2 0x100 DUP1 DUP4 SLOAD DIV MUL DUP4 MSTORE SWAP2 PUSH1 0x20 ADD SWAP2 PUSH2 0x3BA JUMP JUMPDEST DUP3 ADD SWAP2 SWAP1 PUSH0 MSTORE PUSH1 0x20 PUSH0 KECCAK256 SWAP1 JUMPDEST DUP2 SLOAD DUP2 MSTORE SWAP1 PUSH1 0x1 ADD SWAP1 PUSH1 0x20 ADD DUP1 DUP4 GT PUSH2 0x39D JUMPI DUP3 SWAP1 SUB PUSH1 0x1F AND DUP3 ADD SWAP2 JUMPDEST POP POP POP POP POP DUP2 MSTORE PUSH1 0x20 ADD PUSH1 0x2 DUP3 ADD SLOAD DUP2 MSTORE PUSH1 0x20 ADD PUSH1 0x3 DUP3 ADD PUSH0 SWAP1 SLOAD SWAP1 PUSH2 0x100 EXP SWAP1 DIV PUSH20 0xFFFFFFFFFFFFFFFFFFFFFFFFFFFFFFFFFFFFFFFF AND PUSH20 0xFFFFFFFFFFFFFFFFFFFFFFFFFFFFFFFFFFFFFFFF AND PUSH20 0xFFFFFFFFFFFFFFFFFFFFFFFFFFFFFFFFFFFFFFFF AND DUP2 MSTORE POP POP SWAP1 POP DUP1 PUSH0 ADD MLOAD DUP2 PUSH1 0x20 ADD MLOAD DUP3 PUSH1 0x40 ADD MLOAD DUP4 PUSH1 0x60 ADD MLOAD SWAP5 POP SWAP5 POP SWAP5 POP SWAP5 POP POP SWAP2 SWAP4 POP SWAP2 SWAP4 JUMP JUMPDEST PUSH0 PUSH1 0x40 MLOAD SWAP1 POP SWAP1 JUMP JUMPDEST PUSH0 DUP1 REVERT JUMPDEST PUSH0 DUP1 REVERT JUMPDEST PUSH0 DUP2 SWAP1 POP SWAP2 SWAP1 POP JUMP JUMPDEST PUSH2 0x46A DUP2 PUSH2 0x458 JUMP JUMPDEST DUP2 EQ PUSH2 0x474 JUMPI PUSH0 DUP1 REVERT JUMPDEST POP JUMP JUMPDEST PUSH0 DUP2 CALLDATALOAD SWAP1 POP PUSH2 0x485 DUP2 PUSH2 0x461 JUMP JUMPDEST SWAP3 SWAP2 POP POP JUMP JUMPDEST PUSH0 DUP1 REVERT JUMPDEST PUSH0 DUP1 REVERT JUMPDEST PUSH0 PUSH1 0x1F NOT PUSH1 0x1F DUP4 ADD AND SWAP1 POP SWAP2 SWAP1 POP JUMP JUMPDEST PUSH32 0x4E487B7100000000000000000000000000000000000000000000000000000000 PUSH0 MSTORE PUSH1 0x41 PUSH1 0x4 MSTORE PUSH1 0x24 PUSH0 REVERT JUMPDEST PUSH2 0x4D9 DUP3 PUSH2 0x493 JUMP JUMPDEST DUP2 ADD DUP2 DUP2 LT PUSH8 0xFFFFFFFFFFFFFFFF DUP3 GT OR ISZERO PUSH2 0x4F8 JUMPI PUSH2 0x4F7 PUSH2 0x4A3 JUMP JUMPDEST JUMPDEST DUP1 PUSH1 0x40 MSTORE POP POP POP JUMP JUMPDEST PUSH0 PUSH2 0x50A PUSH2 0x447 JUMP JUMPDEST SWAP1 POP PUSH2 0x516 DUP3 DUP3 PUSH2 0x4D0 JUMP JUMPDEST SWAP2 SWAP1 POP JUMP JUMPDEST PUSH0 PUSH8 0xFFFFFFFFFFFFFFFF DUP3 GT ISZERO PUSH2 0x535 JUMPI PUSH2 0x534 PUSH2 0x4A3 JUMP JUMPDEST JUMPDEST PUSH2 0x53E DUP3 PUSH2 0x493 JUMP JUMPDEST SWAP1 POP PUSH1 0x20 DUP2 ADD SWAP1 POP SWAP2 SWAP1 POP JUMP JUMPDEST DUP3 DUP2 DUP4 CALLDATACOPY PUSH0 DUP4 DUP4 ADD MSTORE POP POP POP JUMP JUMPDEST PUSH0 PUSH2 0x56B PUSH2 0x566 DUP5 PUSH2 0x51B JUMP JUMPDEST PUSH2 0x501 JUMP JUMPDEST SWAP1 POP DUP3 DUP2 MSTORE PUSH1 0x20 DUP2 ADD DUP5 DUP5 DUP5 ADD GT ISZERO PUSH2 0x587 JUMPI PUSH2 0x586 PUSH2 0x48F JUMP JUMPDEST JUMPDEST PUSH2 0x592 DUP5 DUP3 DUP6 PUSH2 0x54B JUMP JUMPDEST POP SWAP4 SWAP3 POP POP POP JUMP JUMPDEST PUSH0 DUP3 PUSH1 0x1F DUP4 ADD SLT PUSH2 0x5AE JUMPI PUSH2 0x5AD PUSH2 0x48B JUMP JUMPDEST JUMPDEST DUP2 CALLDATALOAD PUSH2 0x5BE DUP5 DUP3 PUSH1 0x20 DUP7 ADD PUSH2 0x559 JUMP JUMPDEST SWAP2 POP POP SWAP3 SWAP2 POP POP JUMP JUMPDEST PUSH0 DUP1 PUSH1 0x40 DUP4 DUP6 SUB SLT ISZERO PUSH2 0x5DD JUMPI PUSH2 0x5DC PUSH2 0x450 JUMP JUMPDEST JUMPDEST PUSH0 PUSH2 0x5EA DUP6 DUP3 DUP7 ADD PUSH2 0x477 JUMP JUMPDEST SWAP3 POP POP PUSH1 0x20 DUP4 ADD CALLDATALOAD PUSH8 0xFFFFFFFFFFFFFFFF DUP2 GT ISZERO PUSH2 0x60B JUMPI PUSH2 0x60A PUSH2 0x454 JUMP JUMPDEST JUMPDEST PUSH2 0x617 DUP6 DUP3 DUP7 ADD PUSH2 0x59A JUMP JUMPDEST SWAP2 POP POP SWAP3 POP SWAP3 SWAP1 POP JUMP JUMPDEST PUSH0 DUP2 SWAP1 POP SWAP2 SWAP1 POP JUMP JUMPDEST PUSH2 0x633 DUP2 PUSH2 0x621 JUMP JUMPDEST DUP2 EQ PUSH2 0x63D JUMPI PUSH0 DUP1 REVERT JUMPDEST POP JUMP JUMPDEST PUSH0 DUP2 CALLDATALOAD SWAP1 POP PUSH2 0x64E DUP2 PUSH2 0x62A JUMP JUMPDEST SWAP3 SWAP2 POP POP JUMP JUMPDEST PUSH0 PUSH1 0x20 DUP3 DUP5 SUB SLT ISZERO PUSH2 0x669 JUMPI PUSH2 0x668 PUSH2 0x450 JUMP JUMPDEST JUMPDEST PUSH0 PUSH2 0x676 DUP5 DUP3 DUP6 ADD PUSH2 0x640 JUMP JUMPDEST SWAP2 POP POP SWAP3 SWAP2 POP POP JUMP JUMPDEST PUSH2 0x688 DUP2 PUSH2 0x458 JUMP JUMPDEST DUP3 MSTORE POP POP JUMP JUMPDEST PUSH0 DUP2 MLOAD SWAP1 POP SWAP2 SWAP1 POP JUMP JUMPDEST PUSH0 DUP3 DUP3 MSTORE PUSH1 0x20 DUP3 ADD SWAP1 POP SWAP3 SWAP2 POP POP JUMP JUMPDEST PUSH0 JUMPDEST DUP4 DUP2 LT ISZERO PUSH2 0x6C5 JUMPI DUP1 DUP3 ADD MLOAD DUP2 DUP5 ADD MSTORE PUSH1 0x20 DUP2 ADD SWAP1 POP PUSH2 0x6AA JUMP JUMPDEST PUSH0 DUP5 DUP5 ADD MSTORE POP POP POP POP JUMP JUMPDEST PUSH0 PUSH2 0x6DA DUP3 PUSH2 0x68E JUMP JUMPDEST PUSH2 0x6E4 DUP2 DUP6 PUSH2 0x698 JUMP JUMPDEST SWAP4 POP PUSH2 0x6F4 DUP2 DUP6 PUSH1 0x20 DUP7 ADD PUSH2 0x6A8 JUMP JUMPDEST PUSH2 0x6FD DUP2 PUSH2 0x493 JUMP JUMPDEST DUP5 ADD SWAP2 POP POP SWAP3 SWAP2 POP POP JUMP JUMPDEST PUSH2 0x711 DUP2 PUSH2 0x621 JUMP JUMPDEST DUP3 MSTORE POP POP JUMP JUMPDEST PUSH0 PUSH20 0xFFFFFFFFFFFFFFFFFFFFFFFFFFFFFFFFFFFFFFFF DUP3 AND SWAP1 POP SWAP2 SWAP1 POP JUMP JUMPDEST PUSH0 PUSH2 0x740 DUP3 PUSH2 0x717 JUMP JUMPDEST SWAP1 POP SWAP2 SWAP1 POP JUMP JUMPDEST PUSH2 0x750 DUP2 PUSH2 0x736 JUMP JUMPDEST DUP3 MSTORE POP POP JUMP JUMPDEST PUSH0 PUSH1 0x80 DUP3 ADD SWAP1 POP PUSH2 0x769 PUSH0 DUP4 ADD DUP8 PUSH2 0x67F JUMP JUMPDEST DUP2 DUP2 SUB PUSH1 0x20 DUP4 ADD MSTORE PUSH2 0x77B DUP2 DUP7 PUSH2 0x6D0 JUMP JUMPDEST SWAP1 POP PUSH2 0x78A PUSH1 0x40 DUP4 ADD DUP6 PUSH2 0x708 JUMP JUMPDEST PUSH2 0x797 PUSH1 0x60 DUP4 ADD DUP5 PUSH2 0x747 JUMP JUMPDEST SWAP6 SWAP5 POP POP POP POP POP JUMP JUMPDEST PUSH0 PUSH1 0x20 DUP3 ADD SWAP1 POP PUSH2 0x7B3 PUSH0 DUP4 ADD DUP5 PUSH2 0x708 JUMP JUMPDEST SWAP3 SWAP2 POP POP JUMP JUMPDEST PUSH32 0x4E487B7100000000000000000000000000000000000000000000000000000000 PUSH0 MSTORE PUSH1 0x22 PUSH1 0x4 MSTORE PUSH1 0x24 PUSH0 REVERT JUMPDEST PUSH0 PUSH1 0x2 DUP3 DIV SWAP1 POP PUSH1 0x1 DUP3 AND DUP1 PUSH2 0x7FD JUMPI PUSH1 0x7F DUP3 AND SWAP2 POP JUMPDEST PUSH1 0x20 DUP3 LT DUP2 SUB PUSH2 0x810 JUMPI PUSH2 0x80F PUSH2 0x7B9 JUMP JUMPDEST JUMPDEST POP SWAP2 SWAP1 POP JUMP JUMPDEST PUSH0 DUP2 SWAP1 POP DUP2 PUSH0 MSTORE PUSH1 0x20 PUSH0 KECCAK256 SWAP1 POP SWAP2 SWAP1 POP JUMP JUMPDEST PUSH0 PUSH1 0x20 PUSH1 0x1F DUP4 ADD DIV SWAP1 POP SWAP2 SWAP1 POP JUMP JUMPDEST PUSH0 DUP3 DUP3 SHL SWAP1 POP SWAP3 SWAP2 POP POP JUMP JUMPDEST PUSH0 PUSH1 0x8 DUP4 MUL PUSH2 0x872 PUSH32 0xFFFFFFFFFFFFFFFFFFFFFFFFFFFFFFFFFFFFFFFFFFFFFFFFFFFFFFFFFFFFFFFF DUP3 PUSH2 0x837 JUMP JUMPDEST PUSH2 0x87C DUP7 DUP4 PUSH2 0x837 JUMP JUMPDEST SWAP6 POP DUP1 NOT DUP5 AND SWAP4 POP DUP1 DUP7 AND DUP5 OR SWAP3 POP POP POP SWAP4 SWAP3 POP POP POP JUMP JUMPDEST PUSH0 DUP2 SWAP1 POP SWAP2 SWAP1 POP JUMP JUMPDEST PUSH0 PUSH2 0x8B7 PUSH2 0x8B2 PUSH2 0x8AD DUP5 PUSH2 0x621 JUMP JUMPDEST PUSH2 0x894 JUMP JUMPDEST PUSH2 0x621 JUMP JUMPDEST SWAP1 POP SWAP2 SWAP1 POP JUMP JUMPDEST PUSH0 DUP2 SWAP1 POP SWAP2 SWAP1 POP JUMP JUMPDEST PUSH2 0x8D0 DUP4 PUSH2 0x89D JUMP JUMPDEST PUSH2 0x8E4 PUSH2 0x8DC DUP3 PUSH2 0x8BE JUMP JUMPDEST DUP5 DUP5 SLOAD PUSH2 0x843 JUMP JUMPDEST DUP3 SSTORE POP POP POP POP JUMP JUMPDEST PUSH0 SWAP1 JUMP JUMPDEST PUSH2 0x8F8 PUSH2 0x8EC JUMP JUMPDEST PUSH2 0x903 DUP2 DUP5 DUP5 PUSH2 0x8C7 JUMP JUMPDEST POP POP POP JUMP JUMPDEST JUMPDEST DUP2 DUP2 LT ISZERO PUSH2 0x926 JUMPI PUSH2 0x91B PUSH0 DUP3 PUSH2 0x8F0 JUMP JUMPDEST PUSH1 0x1 DUP2 ADD SWAP1 POP PUSH2 0x909 JUMP JUMPDEST POP POP JUMP JUMPDEST PUSH1 0x1F DUP3 GT ISZERO PUSH2 0x96B JUMPI PUSH2 0x93C DUP2 PUSH2 0x816 JUMP JUMPDEST PUSH2 0x945 DUP5 PUSH2 0x828 JUMP JUMPDEST DUP2 ADD PUSH1 0x20 DUP6 LT ISZERO PUSH2 0x954 JUMPI DUP2 SWAP1 POP JUMPDEST PUSH2 0x968 PUSH2 0x960 DUP6 PUSH2 0x828 JUMP JUMPDEST DUP4 ADD DUP3 PUSH2 0x908 JUMP JUMPDEST POP POP JUMPDEST POP POP POP JUMP JUMPDEST PUSH0 DUP3 DUP3 SHR SWAP1 POP SWAP3 SWAP2 POP POP JUMP JUMPDEST PUSH0 PUSH2 0x98B PUSH0 NOT DUP5 PUSH1 0x8 MUL PUSH2 0x970 JUMP JUMPDEST NOT DUP1 DUP4 AND SWAP2 POP POP SWAP3 SWAP2 POP POP JUMP JUMPDEST PUSH0 PUSH2 0x9A3 DUP4 DUP4 PUSH2 0x97C JUMP JUMPDEST SWAP2 POP DUP3 PUSH1 0x2 MUL DUP3 OR SWAP1 POP SWAP3 SWAP2 POP POP JUMP JUMPDEST PUSH2 0x9BC DUP3 PUSH2 0x68E JUMP JUMPDEST PUSH8 0xFFFFFFFFFFFFFFFF DUP2 GT ISZERO PUSH2 0x9D5 JUMPI PUSH2 0x9D4 PUSH2 0x4A3 JUMP JUMPDEST JUMPDEST PUSH2 0x9DF DUP3 SLOAD PUSH2 0x7E6 JUMP JUMPDEST PUSH2 0x9EA DUP3 DUP3 DUP6 PUSH2 0x92A JUMP JUMPDEST PUSH0 PUSH1 0x20 SWAP1 POP PUSH1 0x1F DUP4 GT PUSH1 0x1 DUP2 EQ PUSH2 0xA1B JUMPI PUSH0 DUP5 ISZERO PUSH2 0xA09 JUMPI DUP3 DUP8 ADD MLOAD SWAP1 POP JUMPDEST PUSH2 0xA13 DUP6 DUP3 PUSH2 0x998 JUMP JUMPDEST DUP7 SSTORE POP PUSH2 0xA7A JUMP JUMPDEST PUSH1 0x1F NOT DUP5 AND PUSH2 0xA29 DUP7 PUSH2 0x816 JUMP JUMPDEST PUSH0 JUMPDEST DUP3 DUP2 LT ISZERO PUSH2 0xA50 JUMPI DUP5 DUP10 ADD MLOAD DUP3 SSTORE PUSH1 0x1 DUP3 ADD SWAP2 POP PUSH1 0x20 DUP6 ADD SWAP5 POP PUSH1 0x20 DUP2 ADD SWAP1 POP PUSH2 0xA2B JUMP JUMPDEST DUP7 DUP4 LT ISZERO PUSH2 0xA6D JUMPI DUP5 DUP10 ADD MLOAD PUSH2 0xA69 PUSH1 0x1F DUP10 AND DUP3 PUSH2 0x97C JUMP JUMPDEST DUP4 SSTORE POP JUMPDEST PUSH1 0x1 PUSH1 0x2 DUP9 MUL ADD DUP9 SSTORE POP POP POP JUMPDEST POP POP POP POP POP POP JUMP JUMPDEST PUSH0 PUSH1 0x40 DUP3 ADD SWAP1 POP PUSH2 0xA95 PUSH0 DUP4 ADD DUP6 PUSH2 0x67F JUMP JUMPDEST PUSH2 0xAA2 PUSH1 0x20 DUP4 ADD DUP5 PUSH2 0x708 JUMP JUMPDEST SWAP4 SWAP3 POP POP POP JUMP JUMPDEST PUSH32 0x4E487B7100000000000000000000000000000000000000000000000000000000 PUSH0 MSTORE PUSH1 0x32 PUSH1 0x4 MSTORE PUSH1 0x24 PUSH0 REVERT INVALID LOG2 PUSH5 0x6970667358 0x22 SLT KECCAK256 CALLCODE 0x25 PUSH5 0xA6B57A8EC5 0xD6 SHR 0xD6 DUP9 SWAP14 PUSH26 0x74429BED3B5F15493DC451E0E5A61580B85F64736F6C63430008 EQ STOP CALLER "
	},
	"abi": [
		{
			"anonymous": false,
			"inputs": [
				{
					"indexed": false,
					"internalType": "bytes32",
					"name": "hash",
					"type": "bytes32"
				},
				{
					"indexed": true,
					"internalType": "address",
					"name": "sender",
					"type": "address"
				},
				{
					"indexed": false,
					"internalType": "uint256",
					"name": "timestamp",
					"type": "uint256"
				}
			],
			"name": "MessageStored",
			"type": "event"
		},
		{
			"inputs": [
				{
					"internalType": "uint256",
					"name": "index",
					"type": "uint256"
				}
			],
			"name": "getMessage",
			"outputs": [
				{
					"internalType": "bytes32",
					"name": "",
					"type": "bytes32"
				},
				{
					"internalType": "bytes",
					"name": "",
					"type": "bytes"
				},
				{
					"internalType": "uint256",
					"name": "",
					"type": "uint256"
				},
				{
					"internalType": "address",
					"name": "",
					"type": "address"
				}
			],
			"stateMutability": "view",
			"type": "function"
		},
		{
			"inputs": [],
			"name": "getMessageCount",
			"outputs": [
				{
					"internalType": "uint256",
					"name": "",
					"type": "uint256"
				}
			],
			"stateMutability": "view",
			"type": "function"
		},
		{
			"inputs": [
				{
					"internalType": "uint256",
					"name": "",
					"type": "uint256"
				}
			],
			"name": "messages",
			"outputs": [
				{
					"internalType": "bytes32",
					"name": "hash",
					"type": "bytes32"
				},
				{
					"internalType": "bytes",
					"name": "signature",
					"type": "bytes"
				},
				{
					"internalType": "uint256",
					"name": "timestamp",
					"type": "uint256"
				},
				{
					"internalType": "address",
					"name": "sender",
					"type": "address"
				}
			],
			"stateMutability": "view",
			"type": "function"
		},
		{
			"inputs": [
				{
					"internalType": "bytes32",
					"name": "_hash",
					"type": "bytes32"
				},
				{
					"internalType": "bytes",
					"name": "_signature",
					"type": "bytes"
				}
			],
			"name": "storeMessage",
			"outputs": [],
			"stateMutability": "nonpayable",
			"type": "function"
		}
	],
	"storageLayout": {
		"storage": [
			{
				"astId": 14,
				"contract": "contracts/SecureComm.sol:SecureComm",
				"label": "messages",
				"offset": 0,
				"slot": "0",
				"type": "t_array(t_struct(Message)10_storage)dyn_storage"
			}
		],
		"types": {
			"t_address": {
				"encoding": "inplace",
				"label": "address",
				"numberOfBytes": "20"
			},
			"t_array(t_struct(Message)10_storage)dyn_storage": {
				"base": "t_struct(Message)10_storage",
				"encoding": "dynamic_array",
				"label": "struct SecureComm.Message[]",
				"numberOfBytes": "32"
			},
			"t_bytes32": {
				"encoding": "inplace",
				"label": "bytes32",
				"numberOfBytes": "32"
			},
			"t_bytes_storage": {
				"encoding": "bytes",
				"label": "bytes",
				"numberOfBytes": "32"
			},
			"t_struct(Message)10_storage": {
				"encoding": "inplace",
				"label": "struct SecureComm.Message",
				"members": [
					{
						"astId": 3,
						"contract": "contracts/SecureComm.sol:SecureComm",
						"label": "hash",
						"offset": 0,
						"slot": "0",
						"type": "t_bytes32"
					},
					{
						"astId": 5,
						"contract": "contracts/SecureComm.sol:SecureComm",
						"label": "signature",
						"offset": 0,
						"slot": "1",
						"type": "t_bytes_storage"
					},
					{
						"astId": 7,
						"contract": "contracts/SecureComm.sol:SecureComm",
						"label": "timestamp",
						"offset": 0,
						"slot": "2",
						"type": "t_uint256"
					},
					{
						"astId": 9,
						"contract": "contracts/SecureComm.sol:SecureComm",
						"label": "sender",
						"offset": 0,
						"slot": "3",
						"type": "t_address"
					}
				],
				"numberOfBytes": "128"
			},
			"t_uint256": {
				"encoding": "inplace",
				"label": "uint256",
				"numberOfBytes": "32"
			}
		}
	},
	"web3Deploy": "var securecommContract = new web3.eth.Contract([{\"anonymous\":false,\"inputs\":[{\"indexed\":false,\"internalType\":\"bytes32\",\"name\":\"hash\",\"type\":\"bytes32\"},{\"indexed\":true,\"internalType\":\"address\",\"name\":\"sender\",\"type\":\"address\"},{\"indexed\":false,\"internalType\":\"uint256\",\"name\":\"timestamp\",\"type\":\"uint256\"}],\"name\":\"MessageStored\",\"type\":\"event\"},{\"inputs\":[{\"internalType\":\"uint256\",\"name\":\"index\",\"type\":\"uint256\"}],\"name\":\"getMessage\",\"outputs\":[{\"internalType\":\"bytes32\",\"name\":\"\",\"type\":\"bytes32\"},{\"internalType\":\"bytes\",\"name\":\"\",\"type\":\"bytes\"},{\"internalType\":\"uint256\",\"name\":\"\",\"type\":\"uint256\"},{\"internalType\":\"address\",\"name\":\"\",\"type\":\"address\"}],\"stateMutability\":\"view\",\"type\":\"function\"},{\"inputs\":[],\"name\":\"getMessageCount\",\"outputs\":[{\"internalType\":\"uint256\",\"name\":\"\",\"type\":\"uint256\"}],\"stateMutability\":\"view\",\"type\":\"function\"},{\"inputs\":[{\"internalType\":\"uint256\",\"name\":\"\",\"type\":\"uint256\"}],\"name\":\"messages\",\"outputs\":[{\"internalType\":\"bytes32\",\"name\":\"hash\",\"type\":\"bytes32\"},{\"internalType\":\"bytes\",\"name\":\"signature\",\"type\":\"bytes\"},{\"internalType\":\"uint256\",\"name\":\"timestamp\",\"type\":\"uint256\"},{\"internalType\":\"address\",\"name\":\"sender\",\"type\":\"address\"}],\"stateMutability\":\"view\",\"type\":\"function\"},{\"inputs\":[{\"internalType\":\"bytes32\",\"name\":\"_hash\",\"type\":\"bytes32\"},{\"internalType\":\"bytes\",\"name\":\"_signature\",\"type\":\"bytes\"}],\"name\":\"storeMessage\",\"outputs\":[],\"stateMutability\":\"nonpayable\",\"type\":\"function\"}]);\nvar securecomm = securecommContract.deploy({\n     data: '0x608060405234801561000f575f80fd5b50610b0c8061001d5f395ff3fe608060405234801561000f575f80fd5b506004361061004a575f3560e01c806309aa37ba1461004e5780630d80fefd1461006a578063319339161461009d57806386f79edb146100bb575b5f80fd5b610068600480360381019061006391906105c7565b6100ee565b005b610084600480360381019061007f9190610654565b610210565b6040516100949493929190610756565b60405180910390f35b6100a56102ef565b6040516100b291906107a0565b60405180910390f35b6100d560048036038101906100d09190610654565b6102fa565b6040516100e59493929190610756565b60405180910390f35b5f60405180608001604052808481526020018381526020014281526020013373ffffffffffffffffffffffffffffffffffffffff16815250908060018154018082558091505060019003905f5260205f2090600402015f909190919091505f820151815f0155602082015181600101908161016991906109b3565b50604082015181600201556060820151816003015f6101000a81548173ffffffffffffffffffffffffffffffffffffffff021916908373ffffffffffffffffffffffffffffffffffffffff16021790555050503373ffffffffffffffffffffffffffffffffffffffff167ffc0130f045b99ddc021ab5370f3ebcc300526e38305dc6bbf89079a83abd3eb88342604051610204929190610a82565b60405180910390a25050565b5f818154811061021e575f80fd5b905f5260205f2090600402015f91509050805f015490806001018054610243906107e6565b80601f016020809104026020016040519081016040528092919081815260200182805461026f906107e6565b80156102ba5780601f10610291576101008083540402835291602001916102ba565b820191905f5260205f20905b81548152906001019060200180831161029d57829003601f168201915b505050505090806002015490806003015f9054906101000a900473ffffffffffffffffffffffffffffffffffffffff16905084565b5f8080549050905090565b5f60605f805f80868154811061031357610312610aa9565b5b905f5260205f2090600402016040518060800160405290815f8201548152602001600182018054610343906107e6565b80601f016020809104026020016040519081016040528092919081815260200182805461036f906107e6565b80156103ba5780601f10610391576101008083540402835291602001916103ba565b820191905f5260205f20905b81548152906001019060200180831161039d57829003601f168201915b5050505050815260200160028201548152602001600382015f9054906101000a900473ffffffffffffffffffffffffffffffffffffffff1673ffffffffffffffffffffffffffffffffffffffff1673ffffffffffffffffffffffffffffffffffffffff16815250509050805f01518160200151826040015183606001519450945094509450509193509193565b5f604051905090565b5f80fd5b5f80fd5b5f819050919050565b61046a81610458565b8114610474575f80fd5b50565b5f8135905061048581610461565b92915050565b5f80fd5b5f80fd5b5f601f19601f8301169050919050565b7f4e487b71000000000000000000000000000000000000000000000000000000005f52604160045260245ffd5b6104d982610493565b810181811067ffffffffffffffff821117156104f8576104f76104a3565b5b80604052505050565b5f61050a610447565b905061051682826104d0565b919050565b5f67ffffffffffffffff821115610535576105346104a3565b5b61053e82610493565b9050602081019050919050565b828183375f83830152505050565b5f61056b6105668461051b565b610501565b9050828152602081018484840111156105875761058661048f565b5b61059284828561054b565b509392505050565b5f82601f8301126105ae576105ad61048b565b5b81356105be848260208601610559565b91505092915050565b5f80604083850312156105dd576105dc610450565b5b5f6105ea85828601610477565b925050602083013567ffffffffffffffff81111561060b5761060a610454565b5b6106178582860161059a565b9150509250929050565b5f819050919050565b61063381610621565b811461063d575f80fd5b50565b5f8135905061064e8161062a565b92915050565b5f6020828403121561066957610668610450565b5b5f61067684828501610640565b91505092915050565b61068881610458565b82525050565b5f81519050919050565b5f82825260208201905092915050565b5f5b838110156106c55780820151818401526020810190506106aa565b5f8484015250505050565b5f6106da8261068e565b6106e48185610698565b93506106f48185602086016106a8565b6106fd81610493565b840191505092915050565b61071181610621565b82525050565b5f73ffffffffffffffffffffffffffffffffffffffff82169050919050565b5f61074082610717565b9050919050565b61075081610736565b82525050565b5f6080820190506107695f83018761067f565b818103602083015261077b81866106d0565b905061078a6040830185610708565b6107976060830184610747565b95945050505050565b5f6020820190506107b35f830184610708565b92915050565b7f4e487b71000000000000000000000000000000000000000000000000000000005f52602260045260245ffd5b5f60028204905060018216806107fd57607f821691505b6020821081036108105761080f6107b9565b5b50919050565b5f819050815f5260205f209050919050565b5f6020601f8301049050919050565b5f82821b905092915050565b5f600883026108727fffffffffffffffffffffffffffffffffffffffffffffffffffffffffffffffff82610837565b61087c8683610837565b95508019841693508086168417925050509392505050565b5f819050919050565b5f6108b76108b26108ad84610621565b610894565b610621565b9050919050565b5f819050919050565b6108d08361089d565b6108e46108dc826108be565b848454610843565b825550505050565b5f90565b6108f86108ec565b6109038184846108c7565b505050565b5b818110156109265761091b5f826108f0565b600181019050610909565b5050565b601f82111561096b5761093c81610816565b61094584610828565b81016020851015610954578190505b61096861096085610828565b830182610908565b50505b505050565b5f82821c905092915050565b5f61098b5f1984600802610970565b1980831691505092915050565b5f6109a3838361097c565b9150826002028217905092915050565b6109bc8261068e565b67ffffffffffffffff8111156109d5576109d46104a3565b5b6109df82546107e6565b6109ea82828561092a565b5f60209050601f831160018114610a1b575f8415610a09578287015190505b610a138582610998565b865550610a7a565b601f198416610a2986610816565b5f5b82811015610a5057848901518255600182019150602085019450602081019050610a2b565b86831015610a6d5784890151610a69601f89168261097c565b8355505b6001600288020188555050505b505050505050565b5f604082019050610a955f83018561067f565b610aa26020830184610708565b9392505050565b7f4e487b71000000000000000000000000000000000000000000000000000000005f52603260045260245ffdfea2646970667358221220f22564a6b57a8ec5d61cd6889d7974429bed3b5f15493dc451e0e5a61580b85f64736f6c63430008140033', \n     arguments: [\n     ]\n}).send({\n     from: web3.eth.accounts[0], \n     gas: '4700000'\n   }, function (e, contract){\n    console.log(e, contract);\n    if (typeof contract.address !== 'undefined') {\n         console.log('Contract mined! address: ' + contract.address + ' transactionHash: ' + contract.transactionHash);\n    }\n })",
	"functionHashes": {
		"31933916": "getMessageCount()",
		"86f79edb": "getMessage(uint256)",
		"0d80fefd": "messages(uint256)",
		"09aa37ba": "storeMessage(bytes32,bytes)"
	},
	"gasEstimates": {
		"Creation": {
			"codeDepositCost": "565600",
			"executionCost": "598",
			"totalCost": "566198"
		},
		"External": {
			"getMessage(uint256)": "infinite",
			"getMessageCount()": "2462",
			"messages(uint256)": "infinite",
			"storeMessage(bytes32,bytes)": "infinite"
		}
	},
	"devdoc": {
		"kind": "dev",
		"methods": {},
		"version": 1
	},
	"userdoc": {
		"kind": "user",
		"methods": {},
		"version": 1
	},
	"Runtime Bytecode": {
		"immutableReferences": {},
		"linkReferences": {},
		"object": "608060405234801561000f575f80fd5b506004361061004a575f3560e01c806309aa37ba1461004e5780630d80fefd1461006a578063319339161461009d57806386f79edb146100bb575b5f80fd5b610068600480360381019061006391906105c7565b6100ee565b005b610084600480360381019061007f9190610654565b610210565b6040516100949493929190610756565b60405180910390f35b6100a56102ef565b6040516100b291906107a0565b60405180910390f35b6100d560048036038101906100d09190610654565b6102fa565b6040516100e59493929190610756565b60405180910390f35b5f60405180608001604052808481526020018381526020014281526020013373ffffffffffffffffffffffffffffffffffffffff16815250908060018154018082558091505060019003905f5260205f2090600402015f909190919091505f820151815f0155602082015181600101908161016991906109b3565b50604082015181600201556060820151816003015f6101000a81548173ffffffffffffffffffffffffffffffffffffffff021916908373ffffffffffffffffffffffffffffffffffffffff16021790555050503373ffffffffffffffffffffffffffffffffffffffff167ffc0130f045b99ddc021ab5370f3ebcc300526e38305dc6bbf89079a83abd3eb88342604051610204929190610a82565b60405180910390a25050565b5f818154811061021e575f80fd5b905f5260205f2090600402015f91509050805f015490806001018054610243906107e6565b80601f016020809104026020016040519081016040528092919081815260200182805461026f906107e6565b80156102ba5780601f10610291576101008083540402835291602001916102ba565b820191905f5260205f20905b81548152906001019060200180831161029d57829003601f168201915b505050505090806002015490806003015f9054906101000a900473ffffffffffffffffffffffffffffffffffffffff16905084565b5f8080549050905090565b5f60605f805f80868154811061031357610312610aa9565b5b905f5260205f2090600402016040518060800160405290815f8201548152602001600182018054610343906107e6565b80601f016020809104026020016040519081016040528092919081815260200182805461036f906107e6565b80156103ba5780601f10610391576101008083540402835291602001916103ba565b820191905f5260205f20905b81548152906001019060200180831161039d57829003601f168201915b5050505050815260200160028201548152602001600382015f9054906101000a900473ffffffffffffffffffffffffffffffffffffffff1673ffffffffffffffffffffffffffffffffffffffff1673ffffffffffffffffffffffffffffffffffffffff16815250509050805f01518160200151826040015183606001519450945094509450509193509193565b5f604051905090565b5f80fd5b5f80fd5b5f819050919050565b61046a81610458565b8114610474575f80fd5b50565b5f8135905061048581610461565b92915050565b5f80fd5b5f80fd5b5f601f19601f8301169050919050565b7f4e487b71000000000000000000000000000000000000000000000000000000005f52604160045260245ffd5b6104d982610493565b810181811067ffffffffffffffff821117156104f8576104f76104a3565b5b80604052505050565b5f61050a610447565b905061051682826104d0565b919050565b5f67ffffffffffffffff821115610535576105346104a3565b5b61053e82610493565b9050602081019050919050565b828183375f83830152505050565b5f61056b6105668461051b565b610501565b9050828152602081018484840111156105875761058661048f565b5b61059284828561054b565b509392505050565b5f82601f8301126105ae576105ad61048b565b5b81356105be848260208601610559565b91505092915050565b5f80604083850312156105dd576105dc610450565b5b5f6105ea85828601610477565b925050602083013567ffffffffffffffff81111561060b5761060a610454565b5b6106178582860161059a565b9150509250929050565b5f819050919050565b61063381610621565b811461063d575f80fd5b50565b5f8135905061064e8161062a565b92915050565b5f6020828403121561066957610668610450565b5b5f61067684828501610640565b91505092915050565b61068881610458565b82525050565b5f81519050919050565b5f82825260208201905092915050565b5f5b838110156106c55780820151818401526020810190506106aa565b5f8484015250505050565b5f6106da8261068e565b6106e48185610698565b93506106f48185602086016106a8565b6106fd81610493565b840191505092915050565b61071181610621565b82525050565b5f73ffffffffffffffffffffffffffffffffffffffff82169050919050565b5f61074082610717565b9050919050565b61075081610736565b82525050565b5f6080820190506107695f83018761067f565b818103602083015261077b81866106d0565b905061078a6040830185610708565b6107976060830184610747565b95945050505050565b5f6020820190506107b35f830184610708565b92915050565b7f4e487b71000000000000000000000000000000000000000000000000000000005f52602260045260245ffd5b5f60028204905060018216806107fd57607f821691505b6020821081036108105761080f6107b9565b5b50919050565b5f819050815f5260205f209050919050565b5f6020601f8301049050919050565b5f82821b905092915050565b5f600883026108727fffffffffffffffffffffffffffffffffffffffffffffffffffffffffffffffff82610837565b61087c8683610837565b95508019841693508086168417925050509392505050565b5f819050919050565b5f6108b76108b26108ad84610621565b610894565b610621565b9050919050565b5f819050919050565b6108d08361089d565b6108e46108dc826108be565b848454610843565b825550505050565b5f90565b6108f86108ec565b6109038184846108c7565b505050565b5b818110156109265761091b5f826108f0565b600181019050610909565b5050565b601f82111561096b5761093c81610816565b61094584610828565b81016020851015610954578190505b61096861096085610828565b830182610908565b50505b505050565b5f82821c905092915050565b5f61098b5f1984600802610970565b1980831691505092915050565b5f6109a3838361097c565b9150826002028217905092915050565b6109bc8261068e565b67ffffffffffffffff8111156109d5576109d46104a3565b5b6109df82546107e6565b6109ea82828561092a565b5f60209050601f831160018114610a1b575f8415610a09578287015190505b610a138582610998565b865550610a7a565b601f198416610a2986610816565b5f5b82811015610a5057848901518255600182019150602085019450602081019050610a2b565b86831015610a6d5784890151610a69601f89168261097c565b8355505b6001600288020188555050505b505050505050565b5f604082019050610a955f83018561067f565b610aa26020830184610708565b9392505050565b7f4e487b71000000000000000000000000000000000000000000000000000000005f52603260045260245ffdfea2646970667358221220f22564a6b57a8ec5d61cd6889d7974429bed3b5f15493dc451e0e5a61580b85f64736f6c63430008140033",
		"opcodes": "PUSH1 0x80 PUSH1 0x40 MSTORE CALLVALUE DUP1 ISZERO PUSH2 0xF JUMPI PUSH0 DUP1 REVERT JUMPDEST POP PUSH1 0x4 CALLDATASIZE LT PUSH2 0x4A JUMPI PUSH0 CALLDATALOAD PUSH1 0xE0 SHR DUP1 PUSH4 0x9AA37BA EQ PUSH2 0x4E JUMPI DUP1 PUSH4 0xD80FEFD EQ PUSH2 0x6A JUMPI DUP1 PUSH4 0x31933916 EQ PUSH2 0x9D JUMPI DUP1 PUSH4 0x86F79EDB EQ PUSH2 0xBB JUMPI JUMPDEST PUSH0 DUP1 REVERT JUMPDEST PUSH2 0x68 PUSH1 0x4 DUP1 CALLDATASIZE SUB DUP2 ADD SWAP1 PUSH2 0x63 SWAP2 SWAP1 PUSH2 0x5C7 JUMP JUMPDEST PUSH2 0xEE JUMP JUMPDEST STOP JUMPDEST PUSH2 0x84 PUSH1 0x4 DUP1 CALLDATASIZE SUB DUP2 ADD SWAP1 PUSH2 0x7F SWAP2 SWAP1 PUSH2 0x654 JUMP JUMPDEST PUSH2 0x210 JUMP JUMPDEST PUSH1 0x40 MLOAD PUSH2 0x94 SWAP5 SWAP4 SWAP3 SWAP2 SWAP1 PUSH2 0x756 JUMP JUMPDEST PUSH1 0x40 MLOAD DUP1 SWAP2 SUB SWAP1 RETURN JUMPDEST PUSH2 0xA5 PUSH2 0x2EF JUMP JUMPDEST PUSH1 0x40 MLOAD PUSH2 0xB2 SWAP2 SWAP1 PUSH2 0x7A0 JUMP JUMPDEST PUSH1 0x40 MLOAD DUP1 SWAP2 SUB SWAP1 RETURN JUMPDEST PUSH2 0xD5 PUSH1 0x4 DUP1 CALLDATASIZE SUB DUP2 ADD SWAP1 PUSH2 0xD0 SWAP2 SWAP1 PUSH2 0x654 JUMP JUMPDEST PUSH2 0x2FA JUMP JUMPDEST PUSH1 0x40 MLOAD PUSH2 0xE5 SWAP5 SWAP4 SWAP3 SWAP2 SWAP1 PUSH2 0x756 JUMP JUMPDEST PUSH1 0x40 MLOAD DUP1 SWAP2 SUB SWAP1 RETURN JUMPDEST PUSH0 PUSH1 0x40 MLOAD DUP1 PUSH1 0x80 ADD PUSH1 0x40 MSTORE DUP1 DUP5 DUP2 MSTORE PUSH1 0x20 ADD DUP4 DUP2 MSTORE PUSH1 0x20 ADD TIMESTAMP DUP2 MSTORE PUSH1 0x20 ADD CALLER PUSH20 0xFFFFFFFFFFFFFFFFFFFFFFFFFFFFFFFFFFFFFFFF AND DUP2 MSTORE POP SWAP1 DUP1 PUSH1 0x1 DUP2 SLOAD ADD DUP1 DUP3 SSTORE DUP1 SWAP2 POP POP PUSH1 0x1 SWAP1 SUB SWAP1 PUSH0 MSTORE PUSH1 0x20 PUSH0 KECCAK256 SWAP1 PUSH1 0x4 MUL ADD PUSH0 SWAP1 SWAP2 SWAP1 SWAP2 SWAP1 SWAP2 POP PUSH0 DUP3 ADD MLOAD DUP2 PUSH0 ADD SSTORE PUSH1 0x20 DUP3 ADD MLOAD DUP2 PUSH1 0x1 ADD SWAP1 DUP2 PUSH2 0x169 SWAP2 SWAP1 PUSH2 0x9B3 JUMP JUMPDEST POP PUSH1 0x40 DUP3 ADD MLOAD DUP2 PUSH1 0x2 ADD SSTORE PUSH1 0x60 DUP3 ADD MLOAD DUP2 PUSH1 0x3 ADD PUSH0 PUSH2 0x100 EXP DUP2 SLOAD DUP2 PUSH20 0xFFFFFFFFFFFFFFFFFFFFFFFFFFFFFFFFFFFFFFFF MUL NOT AND SWAP1 DUP4 PUSH20 0xFFFFFFFFFFFFFFFFFFFFFFFFFFFFFFFFFFFFFFFF AND MUL OR SWAP1 SSTORE POP POP POP CALLER PUSH20 0xFFFFFFFFFFFFFFFFFFFFFFFFFFFFFFFFFFFFFFFF AND PUSH32 0xFC0130F045B99DDC021AB5370F3EBCC300526E38305DC6BBF89079A83ABD3EB8 DUP4 TIMESTAMP PUSH1 0x40 MLOAD PUSH2 0x204 SWAP3 SWAP2 SWAP1 PUSH2 0xA82 JUMP JUMPDEST PUSH1 0x40 MLOAD DUP1 SWAP2 SUB SWAP1 LOG2 POP POP JUMP JUMPDEST PUSH0 DUP2 DUP2 SLOAD DUP2 LT PUSH2 0x21E JUMPI PUSH0 DUP1 REVERT JUMPDEST SWAP1 PUSH0 MSTORE PUSH1 0x20 PUSH0 KECCAK256 SWAP1 PUSH1 0x4 MUL ADD PUSH0 SWAP2 POP SWAP1 POP DUP1 PUSH0 ADD SLOAD SWAP1 DUP1 PUSH1 0x1 ADD DUP1 SLOAD PUSH2 0x243 SWAP1 PUSH2 0x7E6 JUMP JUMPDEST DUP1 PUSH1 0x1F ADD PUSH1 0x20 DUP1 SWAP2 DIV MUL PUSH1 0x20 ADD PUSH1 0x40 MLOAD SWAP1 DUP2 ADD PUSH1 0x40 MSTORE DUP1 SWAP3 SWAP2 SWAP1 DUP2 DUP2 MSTORE PUSH1 0x20 ADD DUP3 DUP1 SLOAD PUSH2 0x26F SWAP1 PUSH2 0x7E6 JUMP JUMPDEST DUP1 ISZERO PUSH2 0x2BA JUMPI DUP1 PUSH1 0x1F LT PUSH2 0x291 JUMPI PUSH2 0x100 DUP1 DUP4 SLOAD DIV MUL DUP4 MSTORE SWAP2 PUSH1 0x20 ADD SWAP2 PUSH2 0x2BA JUMP JUMPDEST DUP3 ADD SWAP2 SWAP1 PUSH0 MSTORE PUSH1 0x20 PUSH0 KECCAK256 SWAP1 JUMPDEST DUP2 SLOAD DUP2 MSTORE SWAP1 PUSH1 0x1 ADD SWAP1 PUSH1 0x20 ADD DUP1 DUP4 GT PUSH2 0x29D JUMPI DUP3 SWAP1 SUB PUSH1 0x1F AND DUP3 ADD SWAP2 JUMPDEST POP POP POP POP POP SWAP1 DUP1 PUSH1 0x2 ADD SLOAD SWAP1 DUP1 PUSH1 0x3 ADD PUSH0 SWAP1 SLOAD SWAP1 PUSH2 0x100 EXP SWAP1 DIV PUSH20 0xFFFFFFFFFFFFFFFFFFFFFFFFFFFFFFFFFFFFFFFF AND SWAP1 POP DUP5 JUMP JUMPDEST PUSH0 DUP1 DUP1 SLOAD SWAP1 POP SWAP1 POP SWAP1 JUMP JUMPDEST PUSH0 PUSH1 0x60 PUSH0 DUP1 PUSH0 DUP1 DUP7 DUP2 SLOAD DUP2 LT PUSH2 0x313 JUMPI PUSH2 0x312 PUSH2 0xAA9 JUMP JUMPDEST JUMPDEST SWAP1 PUSH0 MSTORE PUSH1 0x20 PUSH0 KECCAK256 SWAP1 PUSH1 0x4 MUL ADD PUSH1 0x40 MLOAD DUP1 PUSH1 0x80 ADD PUSH1 0x40 MSTORE SWAP1 DUP2 PUSH0 DUP3 ADD SLOAD DUP2 MSTORE PUSH1 0x20 ADD PUSH1 0x1 DUP3 ADD DUP1 SLOAD PUSH2 0x343 SWAP1 PUSH2 0x7E6 JUMP JUMPDEST DUP1 PUSH1 0x1F ADD PUSH1 0x20 DUP1 SWAP2 DIV MUL PUSH1 0x20 ADD PUSH1 0x40 MLOAD SWAP1 DUP2 ADD PUSH1 0x40 MSTORE DUP1 SWAP3 SWAP2 SWAP1 DUP2 DUP2 MSTORE PUSH1 0x20 ADD DUP3 DUP1 SLOAD PUSH2 0x36F SWAP1 PUSH2 0x7E6 JUMP JUMPDEST DUP1 ISZERO PUSH2 0x3BA JUMPI DUP1 PUSH1 0x1F LT PUSH2 0x391 JUMPI PUSH2 0x100 DUP1 DUP4 SLOAD DIV MUL DUP4 MSTORE SWAP2 PUSH1 0x20 ADD SWAP2 PUSH2 0x3BA JUMP JUMPDEST DUP3 ADD SWAP2 SWAP1 PUSH0 MSTORE PUSH1 0x20 PUSH0 KECCAK256 SWAP1 JUMPDEST DUP2 SLOAD DUP2 MSTORE SWAP1 PUSH1 0x1 ADD SWAP1 PUSH1 0x20 ADD DUP1 DUP4 GT PUSH2 0x39D JUMPI DUP3 SWAP1 SUB PUSH1 0x1F AND DUP3 ADD SWAP2 JUMPDEST POP POP POP POP POP DUP2 MSTORE PUSH1 0x20 ADD PUSH1 0x2 DUP3 ADD SLOAD DUP2 MSTORE PUSH1 0x20 ADD PUSH1 0x3 DUP3 ADD PUSH0 SWAP1 SLOAD SWAP1 PUSH2 0x100 EXP SWAP1 DIV PUSH20 0xFFFFFFFFFFFFFFFFFFFFFFFFFFFFFFFFFFFFFFFF AND PUSH20 0xFFFFFFFFFFFFFFFFFFFFFFFFFFFFFFFFFFFFFFFF AND PUSH20 0xFFFFFFFFFFFFFFFFFFFFFFFFFFFFFFFFFFFFFFFF AND DUP2 MSTORE POP POP SWAP1 POP DUP1 PUSH0 ADD MLOAD DUP2 PUSH1 0x20 ADD MLOAD DUP3 PUSH1 0x40 ADD MLOAD DUP4 PUSH1 0x60 ADD MLOAD SWAP5 POP SWAP5 POP SWAP5 POP SWAP5 POP POP SWAP2 SWAP4 POP SWAP2 SWAP4 JUMP JUMPDEST PUSH0 PUSH1 0x40 MLOAD SWAP1 POP SWAP1 JUMP JUMPDEST PUSH0 DUP1 REVERT JUMPDEST PUSH0 DUP1 REVERT JUMPDEST PUSH0 DUP2 SWAP1 POP SWAP2 SWAP1 POP JUMP JUMPDEST PUSH2 0x46A DUP2 PUSH2 0x458 JUMP JUMPDEST DUP2 EQ PUSH2 0x474 JUMPI PUSH0 DUP1 REVERT JUMPDEST POP JUMP JUMPDEST PUSH0 DUP2 CALLDATALOAD SWAP1 POP PUSH2 0x485 DUP2 PUSH2 0x461 JUMP JUMPDEST SWAP3 SWAP2 POP POP JUMP JUMPDEST PUSH0 DUP1 REVERT JUMPDEST PUSH0 DUP1 REVERT JUMPDEST PUSH0 PUSH1 0x1F NOT PUSH1 0x1F DUP4 ADD AND SWAP1 POP SWAP2 SWAP1 POP JUMP JUMPDEST PUSH32 0x4E487B7100000000000000000000000000000000000000000000000000000000 PUSH0 MSTORE PUSH1 0x41 PUSH1 0x4 MSTORE PUSH1 0x24 PUSH0 REVERT JUMPDEST PUSH2 0x4D9 DUP3 PUSH2 0x493 JUMP JUMPDEST DUP2 ADD DUP2 DUP2 LT PUSH8 0xFFFFFFFFFFFFFFFF DUP3 GT OR ISZERO PUSH2 0x4F8 JUMPI PUSH2 0x4F7 PUSH2 0x4A3 JUMP JUMPDEST JUMPDEST DUP1 PUSH1 0x40 MSTORE POP POP POP JUMP JUMPDEST PUSH0 PUSH2 0x50A PUSH2 0x447 JUMP JUMPDEST SWAP1 POP PUSH2 0x516 DUP3 DUP3 PUSH2 0x4D0 JUMP JUMPDEST SWAP2 SWAP1 POP JUMP JUMPDEST PUSH0 PUSH8 0xFFFFFFFFFFFFFFFF DUP3 GT ISZERO PUSH2 0x535 JUMPI PUSH2 0x534 PUSH2 0x4A3 JUMP JUMPDEST JUMPDEST PUSH2 0x53E DUP3 PUSH2 0x493 JUMP JUMPDEST SWAP1 POP PUSH1 0x20 DUP2 ADD SWAP1 POP SWAP2 SWAP1 POP JUMP JUMPDEST DUP3 DUP2 DUP4 CALLDATACOPY PUSH0 DUP4 DUP4 ADD MSTORE POP POP POP JUMP JUMPDEST PUSH0 PUSH2 0x56B PUSH2 0x566 DUP5 PUSH2 0x51B JUMP JUMPDEST PUSH2 0x501 JUMP JUMPDEST SWAP1 POP DUP3 DUP2 MSTORE PUSH1 0x20 DUP2 ADD DUP5 DUP5 DUP5 ADD GT ISZERO PUSH2 0x587 JUMPI PUSH2 0x586 PUSH2 0x48F JUMP JUMPDEST JUMPDEST PUSH2 0x592 DUP5 DUP3 DUP6 PUSH2 0x54B JUMP JUMPDEST POP SWAP4 SWAP3 POP POP POP JUMP JUMPDEST PUSH0 DUP3 PUSH1 0x1F DUP4 ADD SLT PUSH2 0x5AE JUMPI PUSH2 0x5AD PUSH2 0x48B JUMP JUMPDEST JUMPDEST DUP2 CALLDATALOAD PUSH2 0x5BE DUP5 DUP3 PUSH1 0x20 DUP7 ADD PUSH2 0x559 JUMP JUMPDEST SWAP2 POP POP SWAP3 SWAP2 POP POP JUMP JUMPDEST PUSH0 DUP1 PUSH1 0x40 DUP4 DUP6 SUB SLT ISZERO PUSH2 0x5DD JUMPI PUSH2 0x5DC PUSH2 0x450 JUMP JUMPDEST JUMPDEST PUSH0 PUSH2 0x5EA DUP6 DUP3 DUP7 ADD PUSH2 0x477 JUMP JUMPDEST SWAP3 POP POP PUSH1 0x20 DUP4 ADD CALLDATALOAD PUSH8 0xFFFFFFFFFFFFFFFF DUP2 GT ISZERO PUSH2 0x60B JUMPI PUSH2 0x60A PUSH2 0x454 JUMP JUMPDEST JUMPDEST PUSH2 0x617 DUP6 DUP3 DUP7 ADD PUSH2 0x59A JUMP JUMPDEST SWAP2 POP POP SWAP3 POP SWAP3 SWAP1 POP JUMP JUMPDEST PUSH0 DUP2 SWAP1 POP SWAP2 SWAP1 POP JUMP JUMPDEST PUSH2 0x633 DUP2 PUSH2 0x621 JUMP JUMPDEST DUP2 EQ PUSH2 0x63D JUMPI PUSH0 DUP1 REVERT JUMPDEST POP JUMP JUMPDEST PUSH0 DUP2 CALLDATALOAD SWAP1 POP PUSH2 0x64E DUP2 PUSH2 0x62A JUMP JUMPDEST SWAP3 SWAP2 POP POP JUMP JUMPDEST PUSH0 PUSH1 0x20 DUP3 DUP5 SUB SLT ISZERO PUSH2 0x669 JUMPI PUSH2 0x668 PUSH2 0x450 JUMP JUMPDEST JUMPDEST PUSH0 PUSH2 0x676 DUP5 DUP3 DUP6 ADD PUSH2 0x640 JUMP JUMPDEST SWAP2 POP POP SWAP3 SWAP2 POP POP JUMP JUMPDEST PUSH2 0x688 DUP2 PUSH2 0x458 JUMP JUMPDEST DUP3 MSTORE POP POP JUMP JUMPDEST PUSH0 DUP2 MLOAD SWAP1 POP SWAP2 SWAP1 POP JUMP JUMPDEST PUSH0 DUP3 DUP3 MSTORE PUSH1 0x20 DUP3 ADD SWAP1 POP SWAP3 SWAP2 POP POP JUMP JUMPDEST PUSH0 JUMPDEST DUP4 DUP2 LT ISZERO PUSH2 0x6C5 JUMPI DUP1 DUP3 ADD MLOAD DUP2 DUP5 ADD MSTORE PUSH1 0x20 DUP2 ADD SWAP1 POP PUSH2 0x6AA JUMP JUMPDEST PUSH0 DUP5 DUP5 ADD MSTORE POP POP POP POP JUMP JUMPDEST PUSH0 PUSH2 0x6DA DUP3 PUSH2 0x68E JUMP JUMPDEST PUSH2 0x6E4 DUP2 DUP6 PUSH2 0x698 JUMP JUMPDEST SWAP4 POP PUSH2 0x6F4 DUP2 DUP6 PUSH1 0x20 DUP7 ADD PUSH2 0x6A8 JUMP JUMPDEST PUSH2 0x6FD DUP2 PUSH2 0x493 JUMP JUMPDEST DUP5 ADD SWAP2 POP POP SWAP3 SWAP2 POP POP JUMP JUMPDEST PUSH2 0x711 DUP2 PUSH2 0x621 JUMP JUMPDEST DUP3 MSTORE POP POP JUMP JUMPDEST PUSH0 PUSH20 0xFFFFFFFFFFFFFFFFFFFFFFFFFFFFFFFFFFFFFFFF DUP3 AND SWAP1 POP SWAP2 SWAP1 POP JUMP JUMPDEST PUSH0 PUSH2 0x740 DUP3 PUSH2 0x717 JUMP JUMPDEST SWAP1 POP SWAP2 SWAP1 POP JUMP JUMPDEST PUSH2 0x750 DUP2 PUSH2 0x736 JUMP JUMPDEST DUP3 MSTORE POP POP JUMP JUMPDEST PUSH0 PUSH1 0x80 DUP3 ADD SWAP1 POP PUSH2 0x769 PUSH0 DUP4 ADD DUP8 PUSH2 0x67F JUMP JUMPDEST DUP2 DUP2 SUB PUSH1 0x20 DUP4 ADD MSTORE PUSH2 0x77B DUP2 DUP7 PUSH2 0x6D0 JUMP JUMPDEST SWAP1 POP PUSH2 0x78A PUSH1 0x40 DUP4 ADD DUP6 PUSH2 0x708 JUMP JUMPDEST PUSH2 0x797 PUSH1 0x60 DUP4 ADD DUP5 PUSH2 0x747 JUMP JUMPDEST SWAP6 SWAP5 POP POP POP POP POP JUMP JUMPDEST PUSH0 PUSH1 0x20 DUP3 ADD SWAP1 POP PUSH2 0x7B3 PUSH0 DUP4 ADD DUP5 PUSH2 0x708 JUMP JUMPDEST SWAP3 SWAP2 POP POP JUMP JUMPDEST PUSH32 0x4E487B7100000000000000000000000000000000000000000000000000000000 PUSH0 MSTORE PUSH1 0x22 PUSH1 0x4 MSTORE PUSH1 0x24 PUSH0 REVERT JUMPDEST PUSH0 PUSH1 0x2 DUP3 DIV SWAP1 POP PUSH1 0x1 DUP3 AND DUP1 PUSH2 0x7FD JUMPI PUSH1 0x7F DUP3 AND SWAP2 POP JUMPDEST PUSH1 0x20 DUP3 LT DUP2 SUB PUSH2 0x810 JUMPI PUSH2 0x80F PUSH2 0x7B9 JUMP JUMPDEST JUMPDEST POP SWAP2 SWAP1 POP JUMP JUMPDEST PUSH0 DUP2 SWAP1 POP DUP2 PUSH0 MSTORE PUSH1 0x20 PUSH0 KECCAK256 SWAP1 POP SWAP2 SWAP1 POP JUMP JUMPDEST PUSH0 PUSH1 0x20 PUSH1 0x1F DUP4 ADD DIV SWAP1 POP SWAP2 SWAP1 POP JUMP JUMPDEST PUSH0 DUP3 DUP3 SHL SWAP1 POP SWAP3 SWAP2 POP POP JUMP JUMPDEST PUSH0 PUSH1 0x8 DUP4 MUL PUSH2 0x872 PUSH32 0xFFFFFFFFFFFFFFFFFFFFFFFFFFFFFFFFFFFFFFFFFFFFFFFFFFFFFFFFFFFFFFFF DUP3 PUSH2 0x837 JUMP JUMPDEST PUSH2 0x87C DUP7 DUP4 PUSH2 0x837 JUMP JUMPDEST SWAP6 POP DUP1 NOT DUP5 AND SWAP4 POP DUP1 DUP7 AND DUP5 OR SWAP3 POP POP POP SWAP4 SWAP3 POP POP POP JUMP JUMPDEST PUSH0 DUP2 SWAP1 POP SWAP2 SWAP1 POP JUMP JUMPDEST PUSH0 PUSH2 0x8B7 PUSH2 0x8B2 PUSH2 0x8AD DUP5 PUSH2 0x621 JUMP JUMPDEST PUSH2 0x894 JUMP JUMPDEST PUSH2 0x621 JUMP JUMPDEST SWAP1 POP SWAP2 SWAP1 POP JUMP JUMPDEST PUSH0 DUP2 SWAP1 POP SWAP2 SWAP1 POP JUMP JUMPDEST PUSH2 0x8D0 DUP4 PUSH2 0x89D JUMP JUMPDEST PUSH2 0x8E4 PUSH2 0x8DC DUP3 PUSH2 0x8BE JUMP JUMPDEST DUP5 DUP5 SLOAD PUSH2 0x843 JUMP JUMPDEST DUP3 SSTORE POP POP POP POP JUMP JUMPDEST PUSH0 SWAP1 JUMP JUMPDEST PUSH2 0x8F8 PUSH2 0x8EC JUMP JUMPDEST PUSH2 0x903 DUP2 DUP5 DUP5 PUSH2 0x8C7 JUMP JUMPDEST POP POP POP JUMP JUMPDEST JUMPDEST DUP2 DUP2 LT ISZERO PUSH2 0x926 JUMPI PUSH2 0x91B PUSH0 DUP3 PUSH2 0x8F0 JUMP JUMPDEST PUSH1 0x1 DUP2 ADD SWAP1 POP PUSH2 0x909 JUMP JUMPDEST POP POP JUMP JUMPDEST PUSH1 0x1F DUP3 GT ISZERO PUSH2 0x96B JUMPI PUSH2 0x93C DUP2 PUSH2 0x816 JUMP JUMPDEST PUSH2 0x945 DUP5 PUSH2 0x828 JUMP JUMPDEST DUP2 ADD PUSH1 0x20 DUP6 LT ISZERO PUSH2 0x954 JUMPI DUP2 SWAP1 POP JUMPDEST PUSH2 0x968 PUSH2 0x960 DUP6 PUSH2 0x828 JUMP JUMPDEST DUP4 ADD DUP3 PUSH2 0x908 JUMP JUMPDEST POP POP JUMPDEST POP POP POP JUMP JUMPDEST PUSH0 DUP3 DUP3 SHR SWAP1 POP SWAP3 SWAP2 POP POP JUMP JUMPDEST PUSH0 PUSH2 0x98B PUSH0 NOT DUP5 PUSH1 0x8 MUL PUSH2 0x970 JUMP JUMPDEST NOT DUP1 DUP4 AND SWAP2 POP POP SWAP3 SWAP2 POP POP JUMP JUMPDEST PUSH0 PUSH2 0x9A3 DUP4 DUP4 PUSH2 0x97C JUMP JUMPDEST SWAP2 POP DUP3 PUSH1 0x2 MUL DUP3 OR SWAP1 POP SWAP3 SWAP2 POP POP JUMP JUMPDEST PUSH2 0x9BC DUP3 PUSH2 0x68E JUMP JUMPDEST PUSH8 0xFFFFFFFFFFFFFFFF DUP2 GT ISZERO PUSH2 0x9D5 JUMPI PUSH2 0x9D4 PUSH2 0x4A3 JUMP JUMPDEST JUMPDEST PUSH2 0x9DF DUP3 SLOAD PUSH2 0x7E6 JUMP JUMPDEST PUSH2 0x9EA DUP3 DUP3 DUP6 PUSH2 0x92A JUMP JUMPDEST PUSH0 PUSH1 0x20 SWAP1 POP PUSH1 0x1F DUP4 GT PUSH1 0x1 DUP2 EQ PUSH2 0xA1B JUMPI PUSH0 DUP5 ISZERO PUSH2 0xA09 JUMPI DUP3 DUP8 ADD MLOAD SWAP1 POP JUMPDEST PUSH2 0xA13 DUP6 DUP3 PUSH2 0x998 JUMP JUMPDEST DUP7 SSTORE POP PUSH2 0xA7A JUMP JUMPDEST PUSH1 0x1F NOT DUP5 AND PUSH2 0xA29 DUP7 PUSH2 0x816 JUMP JUMPDEST PUSH0 JUMPDEST DUP3 DUP2 LT ISZERO PUSH2 0xA50 JUMPI DUP5 DUP10 ADD MLOAD DUP3 SSTORE PUSH1 0x1 DUP3 ADD SWAP2 POP PUSH1 0x20 DUP6 ADD SWAP5 POP PUSH1 0x20 DUP2 ADD SWAP1 POP PUSH2 0xA2B JUMP JUMPDEST DUP7 DUP4 LT ISZERO PUSH2 0xA6D JUMPI DUP5 DUP10 ADD MLOAD PUSH2 0xA69 PUSH1 0x1F DUP10 AND DUP3 PUSH2 0x97C JUMP JUMPDEST DUP4 SSTORE POP JUMPDEST PUSH1 0x1 PUSH1 0x2 DUP9 MUL ADD DUP9 SSTORE POP POP POP JUMPDEST POP POP POP POP POP POP JUMP JUMPDEST PUSH0 PUSH1 0x40 DUP3 ADD SWAP1 POP PUSH2 0xA95 PUSH0 DUP4 ADD DUP6 PUSH2 0x67F JUMP JUMPDEST PUSH2 0xAA2 PUSH1 0x20 DUP4 ADD DUP5 PUSH2 0x708 JUMP JUMPDEST SWAP4 SWAP3 POP POP POP JUMP JUMPDEST PUSH32 0x4E487B7100000000000000000000000000000000000000000000000000000000 PUSH0 MSTORE PUSH1 0x32 PUSH1 0x4 MSTORE PUSH1 0x24 PUSH0 REVERT INVALID LOG2 PUSH5 0x6970667358 0x22 SLT KECCAK256 CALLCODE 0x25 PUSH5 0xA6B57A8EC5 0xD6 SHR 0xD6 DUP9 SWAP14 PUSH26 0x74429BED3B5F15493DC451E0E5A61580B85F64736F6C63430008 EQ STOP CALLER "
	},
	"Assembly": ".code\n  PUSH 80\t\t\tcontract SecureComm {\\r\\n\\r\\n ...\n  PUSH 40\t\t\tcontract SecureComm {\\r\\n\\r\\n ...\n  MSTORE \t\t\tcontract SecureComm {\\r\\n\\r\\n ...\n  CALLVALUE \t\t\tcontract SecureComm {\\r\\n\\r\\n ...\n  DUP1 \t\t\tcontract SecureComm {\\r\\n\\r\\n ...\n  ISZERO \t\t\tcontract SecureComm {\\r\\n\\r\\n ...\n  PUSH [tag] 1\t\t\tcontract SecureComm {\\r\\n\\r\\n ...\n  JUMPI \t\t\tcontract SecureComm {\\r\\n\\r\\n ...\n  PUSH 0\t\t\tcontract SecureComm {\\r\\n\\r\\n ...\n  DUP1 \t\t\tcontract SecureComm {\\r\\n\\r\\n ...\n  REVERT \t\t\tcontract SecureComm {\\r\\n\\r\\n ...\ntag 1\t\t\tcontract SecureComm {\\r\\n\\r\\n ...\n  JUMPDEST \t\t\tcontract SecureComm {\\r\\n\\r\\n ...\n  POP \t\t\tcontract SecureComm {\\r\\n\\r\\n ...\n  PUSH #[$] 0000000000000000000000000000000000000000000000000000000000000000\t\t\tcontract SecureComm {\\r\\n\\r\\n ...\n  DUP1 \t\t\tcontract SecureComm {\\r\\n\\r\\n ...\n  PUSH [$] 0000000000000000000000000000000000000000000000000000000000000000\t\t\tcontract SecureComm {\\r\\n\\r\\n ...\n  PUSH 0\t\t\tcontract SecureComm {\\r\\n\\r\\n ...\n  CODECOPY \t\t\tcontract SecureComm {\\r\\n\\r\\n ...\n  PUSH 0\t\t\tcontract SecureComm {\\r\\n\\r\\n ...\n  RETURN \t\t\tcontract SecureComm {\\r\\n\\r\\n ...\n.data\n  0:\n    .code\n      PUSH 80\t\t\tcontract SecureComm {\\r\\n\\r\\n ...\n      PUSH 40\t\t\tcontract SecureComm {\\r\\n\\r\\n ...\n      MSTORE \t\t\tcontract SecureComm {\\r\\n\\r\\n ...\n      CALLVALUE \t\t\tcontract SecureComm {\\r\\n\\r\\n ...\n      DUP1 \t\t\tcontract SecureComm {\\r\\n\\r\\n ...\n      ISZERO \t\t\tcontract SecureComm {\\r\\n\\r\\n ...\n      PUSH [tag] 1\t\t\tcontract SecureComm {\\r\\n\\r\\n ...\n      JUMPI \t\t\tcontract SecureComm {\\r\\n\\r\\n ...\n      PUSH 0\t\t\tcontract SecureComm {\\r\\n\\r\\n ...\n      DUP1 \t\t\tcontract SecureComm {\\r\\n\\r\\n ...\n      REVERT \t\t\tcontract SecureComm {\\r\\n\\r\\n ...\n    tag 1\t\t\tcontract SecureComm {\\r\\n\\r\\n ...\n      JUMPDEST \t\t\tcontract SecureComm {\\r\\n\\r\\n ...\n      POP \t\t\tcontract SecureComm {\\r\\n\\r\\n ...\n      PUSH 4\t\t\tcontract SecureComm {\\r\\n\\r\\n ...\n      CALLDATASIZE \t\t\tcontract SecureComm {\\r\\n\\r\\n ...\n      LT \t\t\tcontract SecureComm {\\r\\n\\r\\n ...\n      PUSH [tag] 2\t\t\tcontract SecureComm {\\r\\n\\r\\n ...\n      JUMPI \t\t\tcontract SecureComm {\\r\\n\\r\\n ...\n      PUSH 0\t\t\tcontract SecureComm {\\r\\n\\r\\n ...\n      CALLDATALOAD \t\t\tcontract SecureComm {\\r\\n\\r\\n ...\n      PUSH E0\t\t\tcontract SecureComm {\\r\\n\\r\\n ...\n      SHR \t\t\tcontract SecureComm {\\r\\n\\r\\n ...\n      DUP1 \t\t\tcontract SecureComm {\\r\\n\\r\\n ...\n      PUSH 9AA37BA\t\t\tcontract SecureComm {\\r\\n\\r\\n ...\n      EQ \t\t\tcontract SecureComm {\\r\\n\\r\\n ...\n      PUSH [tag] 3\t\t\tcontract SecureComm {\\r\\n\\r\\n ...\n      JUMPI \t\t\tcontract SecureComm {\\r\\n\\r\\n ...\n      DUP1 \t\t\tcontract SecureComm {\\r\\n\\r\\n ...\n      PUSH D80FEFD\t\t\tcontract SecureComm {\\r\\n\\r\\n ...\n      EQ \t\t\tcontract SecureComm {\\r\\n\\r\\n ...\n      PUSH [tag] 4\t\t\tcontract SecureComm {\\r\\n\\r\\n ...\n      JUMPI \t\t\tcontract SecureComm {\\r\\n\\r\\n ...\n      DUP1 \t\t\tcontract SecureComm {\\r\\n\\r\\n ...\n      PUSH 31933916\t\t\tcontract SecureComm {\\r\\n\\r\\n ...\n      EQ \t\t\tcontract SecureComm {\\r\\n\\r\\n ...\n      PUSH [tag] 5\t\t\tcontract SecureComm {\\r\\n\\r\\n ...\n      JUMPI \t\t\tcontract SecureComm {\\r\\n\\r\\n ...\n      DUP1 \t\t\tcontract SecureComm {\\r\\n\\r\\n ...\n      PUSH 86F79EDB\t\t\tcontract SecureComm {\\r\\n\\r\\n ...\n      EQ \t\t\tcontract SecureComm {\\r\\n\\r\\n ...\n      PUSH [tag] 6\t\t\tcontract SecureComm {\\r\\n\\r\\n ...\n      JUMPI \t\t\tcontract SecureComm {\\r\\n\\r\\n ...\n    tag 2\t\t\tcontract SecureComm {\\r\\n\\r\\n ...\n      JUMPDEST \t\t\tcontract SecureComm {\\r\\n\\r\\n ...\n      PUSH 0\t\t\tcontract SecureComm {\\r\\n\\r\\n ...\n      DUP1 \t\t\tcontract SecureComm {\\r\\n\\r\\n ...\n      REVERT \t\t\tcontract SecureComm {\\r\\n\\r\\n ...\n    tag 3\t\t\tfunction storeMessage(\\r\\n    ...\n      JUMPDEST \t\t\tfunction storeMessage(\\r\\n    ...\n      PUSH [tag] 7\t\t\tfunction storeMessage(\\r\\n    ...\n      PUSH 4\t\t\tfunction storeMessage(\\r\\n    ...\n      DUP1 \t\t\tfunction storeMessage(\\r\\n    ...\n      CALLDATASIZE \t\t\tfunction storeMessage(\\r\\n    ...\n      SUB \t\t\tfunction storeMessage(\\r\\n    ...\n      DUP2 \t\t\tfunction storeMessage(\\r\\n    ...\n      ADD \t\t\tfunction storeMessage(\\r\\n    ...\n      SWAP1 \t\t\tfunction storeMessage(\\r\\n    ...\n      PUSH [tag] 8\t\t\tfunction storeMessage(\\r\\n    ...\n      SWAP2 \t\t\tfunction storeMessage(\\r\\n    ...\n      SWAP1 \t\t\tfunction storeMessage(\\r\\n    ...\n      PUSH [tag] 9\t\t\tfunction storeMessage(\\r\\n    ...\n      JUMP \t\t\tfunction storeMessage(\\r\\n    ...\n    tag 8\t\t\tfunction storeMessage(\\r\\n    ...\n      JUMPDEST \t\t\tfunction storeMessage(\\r\\n    ...\n      PUSH [tag] 10\t\t\tfunction storeMessage(\\r\\n    ...\n      JUMP \t\t\tfunction storeMessage(\\r\\n    ...\n    tag 7\t\t\tfunction storeMessage(\\r\\n    ...\n      JUMPDEST \t\t\tfunction storeMessage(\\r\\n    ...\n      STOP \t\t\tfunction storeMessage(\\r\\n    ...\n    tag 4\t\t\tMessage[] public messages\n      JUMPDEST \t\t\tMessage[] public messages\n      PUSH [tag] 11\t\t\tMessage[] public messages\n      PUSH 4\t\t\tMessage[] public messages\n      DUP1 \t\t\tMessage[] public messages\n      CALLDATASIZE \t\t\tMessage[] public messages\n      SUB \t\t\tMessage[] public messages\n      DUP2 \t\t\tMessage[] public messages\n      ADD \t\t\tMessage[] public messages\n      SWAP1 \t\t\tMessage[] public messages\n      PUSH [tag] 12\t\t\tMessage[] public messages\n      SWAP2 \t\t\tMessage[] public messages\n      SWAP1 \t\t\tMessage[] public messages\n      PUSH [tag] 13\t\t\tMessage[] public messages\n      JUMP \t\t\tMessage[] public messages\n    tag 12\t\t\tMessage[] public messages\n      JUMPDEST \t\t\tMessage[] public messages\n      PUSH [tag] 14\t\t\tMessage[] public messages\n      JUMP \t\t\tMessage[] public messages\n    tag 11\t\t\tMessage[] public messages\n      JUMPDEST \t\t\tMessage[] public messages\n      PUSH 40\t\t\tMessage[] public messages\n      MLOAD \t\t\tMessage[] public messages\n      PUSH [tag] 15\t\t\tMessage[] public messages\n      SWAP5 \t\t\tMessage[] public messages\n      SWAP4 \t\t\tMessage[] public messages\n      SWAP3 \t\t\tMessage[] public messages\n      SWAP2 \t\t\tMessage[] public messages\n      SWAP1 \t\t\tMessage[] public messages\n      PUSH [tag] 16\t\t\tMessage[] public messages\n      JUMP \t\t\tMessage[] public messages\n    tag 15\t\t\tMessage[] public messages\n      JUMPDEST \t\t\tMessage[] public messages\n      PUSH 40\t\t\tMessage[] public messages\n      MLOAD \t\t\tMessage[] public messages\n      DUP1 \t\t\tMessage[] public messages\n      SWAP2 \t\t\tMessage[] public messages\n      SUB \t\t\tMessage[] public messages\n      SWAP1 \t\t\tMessage[] public messages\n      RETURN \t\t\tMessage[] public messages\n    tag 5\t\t\tfunction getMessageCount() pub...\n      JUMPDEST \t\t\tfunction getMessageCount() pub...\n      PUSH [tag] 17\t\t\tfunction getMessageCount() pub...\n      PUSH [tag] 18\t\t\tfunction getMessageCount() pub...\n      JUMP \t\t\tfunction getMessageCount() pub...\n    tag 17\t\t\tfunction getMessageCount() pub...\n      JUMPDEST \t\t\tfunction getMessageCount() pub...\n      PUSH 40\t\t\tfunction getMessageCount() pub...\n      MLOAD \t\t\tfunction getMessageCount() pub...\n      PUSH [tag] 19\t\t\tfunction getMessageCount() pub...\n      SWAP2 \t\t\tfunction getMessageCount() pub...\n      SWAP1 \t\t\tfunction getMessageCount() pub...\n      PUSH [tag] 20\t\t\tfunction getMessageCount() pub...\n      JUMP \t\t\tfunction getMessageCount() pub...\n    tag 19\t\t\tfunction getMessageCount() pub...\n      JUMPDEST \t\t\tfunction getMessageCount() pub...\n      PUSH 40\t\t\tfunction getMessageCount() pub...\n      MLOAD \t\t\tfunction getMessageCount() pub...\n      DUP1 \t\t\tfunction getMessageCount() pub...\n      SWAP2 \t\t\tfunction getMessageCount() pub...\n      SUB \t\t\tfunction getMessageCount() pub...\n      SWAP1 \t\t\tfunction getMessageCount() pub...\n      RETURN \t\t\tfunction getMessageCount() pub...\n    tag 6\t\t\tfunction getMessage(uint256 in...\n      JUMPDEST \t\t\tfunction getMessage(uint256 in...\n      PUSH [tag] 21\t\t\tfunction getMessage(uint256 in...\n      PUSH 4\t\t\tfunction getMessage(uint256 in...\n      DUP1 \t\t\tfunction getMessage(uint256 in...\n      CALLDATASIZE \t\t\tfunction getMessage(uint256 in...\n      SUB \t\t\tfunction getMessage(uint256 in...\n      DUP2 \t\t\tfunction getMessage(uint256 in...\n      ADD \t\t\tfunction getMessage(uint256 in...\n      SWAP1 \t\t\tfunction getMessage(uint256 in...\n      PUSH [tag] 22\t\t\tfunction getMessage(uint256 in...\n      SWAP2 \t\t\tfunction getMessage(uint256 in...\n      SWAP1 \t\t\tfunction getMessage(uint256 in...\n      PUSH [tag] 13\t\t\tfunction getMessage(uint256 in...\n      JUMP \t\t\tfunction getMessage(uint256 in...\n    tag 22\t\t\tfunction getMessage(uint256 in...\n      JUMPDEST \t\t\tfunction getMessage(uint256 in...\n      PUSH [tag] 23\t\t\tfunction getMessage(uint256 in...\n      JUMP \t\t\tfunction getMessage(uint256 in...\n    tag 21\t\t\tfunction getMessage(uint256 in...\n      JUMPDEST \t\t\tfunction getMessage(uint256 in...\n      PUSH 40\t\t\tfunction getMessage(uint256 in...\n      MLOAD \t\t\tfunction getMessage(uint256 in...\n      PUSH [tag] 24\t\t\tfunction getMessage(uint256 in...\n      SWAP5 \t\t\tfunction getMessage(uint256 in...\n      SWAP4 \t\t\tfunction getMessage(uint256 in...\n      SWAP3 \t\t\tfunction getMessage(uint256 in...\n      SWAP2 \t\t\tfunction getMessage(uint256 in...\n      SWAP1 \t\t\tfunction getMessage(uint256 in...\n      PUSH [tag] 16\t\t\tfunction getMessage(uint256 in...\n      JUMP \t\t\tfunction getMessage(uint256 in...\n    tag 24\t\t\tfunction getMessage(uint256 in...\n      JUMPDEST \t\t\tfunction getMessage(uint256 in...\n      PUSH 40\t\t\tfunction getMessage(uint256 in...\n      MLOAD \t\t\tfunction getMessage(uint256 in...\n      DUP1 \t\t\tfunction getMessage(uint256 in...\n      SWAP2 \t\t\tfunction getMessage(uint256 in...\n      SUB \t\t\tfunction getMessage(uint256 in...\n      SWAP1 \t\t\tfunction getMessage(uint256 in...\n      RETURN \t\t\tfunction getMessage(uint256 in...\n    tag 10\t\t\tfunction storeMessage(\\r\\n    ...\n      JUMPDEST \t\t\tfunction storeMessage(\\r\\n    ...\n      PUSH 0\t\t\tmessages\n      PUSH 40\t\t\tMessage(\\r\\n                _h...\n      MLOAD \t\t\tMessage(\\r\\n                _h...\n      DUP1 \t\t\tMessage(\\r\\n                _h...\n      PUSH 80\t\t\tMessage(\\r\\n                _h...\n      ADD \t\t\tMessage(\\r\\n                _h...\n      PUSH 40\t\t\tMessage(\\r\\n                _h...\n      MSTORE \t\t\tMessage(\\r\\n                _h...\n      DUP1 \t\t\tMessage(\\r\\n                _h...\n      DUP5 \t\t\t_hash\n      DUP2 \t\t\tMessage(\\r\\n                _h...\n      MSTORE \t\t\tMessage(\\r\\n                _h...\n      PUSH 20\t\t\tMessage(\\r\\n                _h...\n      ADD \t\t\tMessage(\\r\\n                _h...\n      DUP4 \t\t\t_signature\n      DUP2 \t\t\tMessage(\\r\\n                _h...\n      MSTORE \t\t\tMessage(\\r\\n                _h...\n      PUSH 20\t\t\tMessage(\\r\\n                _h...\n      ADD \t\t\tMessage(\\r\\n                _h...\n      TIMESTAMP \t\t\tblock.timestamp\n      DUP2 \t\t\tMessage(\\r\\n                _h...\n      MSTORE \t\t\tMessage(\\r\\n                _h...\n      PUSH 20\t\t\tMessage(\\r\\n                _h...\n      ADD \t\t\tMessage(\\r\\n                _h...\n      CALLER \t\t\tmsg.sender\n      PUSH FFFFFFFFFFFFFFFFFFFFFFFFFFFFFFFFFFFFFFFF\t\t\tMessage(\\r\\n                _h...\n      AND \t\t\tMessage(\\r\\n                _h...\n      DUP2 \t\t\tMessage(\\r\\n                _h...\n      MSTORE \t\t\tMessage(\\r\\n                _h...\n      POP \t\t\tMessage(\\r\\n                _h...\n      SWAP1 \t\t\tmessages.push(\\r\\n            ...\n      DUP1 \t\t\tmessages.push(\\r\\n            ...\n      PUSH 1\t\t\tmessages.push(\\r\\n            ...\n      DUP2 \t\t\tmessages.push(\\r\\n            ...\n      SLOAD \t\t\tmessages.push(\\r\\n            ...\n      ADD \t\t\tmessages.push(\\r\\n            ...\n      DUP1 \t\t\tmessages.push(\\r\\n            ...\n      DUP3 \t\t\tmessages.push(\\r\\n            ...\n      SSTORE \t\t\tmessages.push(\\r\\n            ...\n      DUP1 \t\t\tmessages.push(\\r\\n            ...\n      SWAP2 \t\t\tmessages.push(\\r\\n            ...\n      POP \t\t\tmessages.push(\\r\\n            ...\n      POP \t\t\tmessages.push(\\r\\n            ...\n      PUSH 1\t\t\tmessages.push(\\r\\n            ...\n      SWAP1 \t\t\tmessages.push(\\r\\n            ...\n      SUB \t\t\tmessages.push(\\r\\n            ...\n      SWAP1 \t\t\tmessages.push(\\r\\n            ...\n      PUSH 0\t\t\tmessages.push(\\r\\n            ...\n      MSTORE \t\t\tmessages.push(\\r\\n            ...\n      PUSH 20\t\t\tmessages.push(\\r\\n            ...\n      PUSH 0\t\t\tmessages.push(\\r\\n            ...\n      KECCAK256 \t\t\tmessages.push(\\r\\n            ...\n      SWAP1 \t\t\tmessages.push(\\r\\n            ...\n      PUSH 4\t\t\tmessages.push(\\r\\n            ...\n      MUL \t\t\tmessages.push(\\r\\n            ...\n      ADD \t\t\tmessages.push(\\r\\n            ...\n      PUSH 0\t\t\tmessages.push(\\r\\n            ...\n      SWAP1 \t\t\tmessages.push(\\r\\n            ...\n      SWAP2 \t\t\tmessages.push(\\r\\n            ...\n      SWAP1 \t\t\tmessages.push(\\r\\n            ...\n      SWAP2 \t\t\tmessages.push(\\r\\n            ...\n      SWAP1 \t\t\tmessages.push(\\r\\n            ...\n      SWAP2 \t\t\tmessages.push(\\r\\n            ...\n      POP \t\t\tmessages.push(\\r\\n            ...\n      PUSH 0\t\t\tmessages.push(\\r\\n            ...\n      DUP3 \t\t\tmessages.push(\\r\\n            ...\n      ADD \t\t\tmessages.push(\\r\\n            ...\n      MLOAD \t\t\tmessages.push(\\r\\n            ...\n      DUP2 \t\t\tmessages.push(\\r\\n            ...\n      PUSH 0\t\t\tmessages.push(\\r\\n            ...\n      ADD \t\t\tmessages.push(\\r\\n            ...\n      SSTORE \t\t\tmessages.push(\\r\\n            ...\n      PUSH 20\t\t\tmessages.push(\\r\\n            ...\n      DUP3 \t\t\tmessages.push(\\r\\n            ...\n      ADD \t\t\tmessages.push(\\r\\n            ...\n      MLOAD \t\t\tmessages.push(\\r\\n            ...\n      DUP2 \t\t\tmessages.push(\\r\\n            ...\n      PUSH 1\t\t\tmessages.push(\\r\\n            ...\n      ADD \t\t\tmessages.push(\\r\\n            ...\n      SWAP1 \t\t\tmessages.push(\\r\\n            ...\n      DUP2 \t\t\tmessages.push(\\r\\n            ...\n      PUSH [tag] 27\t\t\tmessages.push(\\r\\n            ...\n      SWAP2 \t\t\tmessages.push(\\r\\n            ...\n      SWAP1 \t\t\tmessages.push(\\r\\n            ...\n      PUSH [tag] 28\t\t\tmessages.push(\\r\\n            ...\n      JUMP \t\t\tmessages.push(\\r\\n            ...\n    tag 27\t\t\tmessages.push(\\r\\n            ...\n      JUMPDEST \t\t\tmessages.push(\\r\\n            ...\n      POP \t\t\tmessages.push(\\r\\n            ...\n      PUSH 40\t\t\tmessages.push(\\r\\n            ...\n      DUP3 \t\t\tmessages.push(\\r\\n            ...\n      ADD \t\t\tmessages.push(\\r\\n            ...\n      MLOAD \t\t\tmessages.push(\\r\\n            ...\n      DUP2 \t\t\tmessages.push(\\r\\n            ...\n      PUSH 2\t\t\tmessages.push(\\r\\n            ...\n      ADD \t\t\tmessages.push(\\r\\n            ...\n      SSTORE \t\t\tmessages.push(\\r\\n            ...\n      PUSH 60\t\t\tmessages.push(\\r\\n            ...\n      DUP3 \t\t\tmessages.push(\\r\\n            ...\n      ADD \t\t\tmessages.push(\\r\\n            ...\n      MLOAD \t\t\tmessages.push(\\r\\n            ...\n      DUP2 \t\t\tmessages.push(\\r\\n            ...\n      PUSH 3\t\t\tmessages.push(\\r\\n            ...\n      ADD \t\t\tmessages.push(\\r\\n            ...\n      PUSH 0\t\t\tmessages.push(\\r\\n            ...\n      PUSH 100\t\t\tmessages.push(\\r\\n            ...\n      EXP \t\t\tmessages.push(\\r\\n            ...\n      DUP2 \t\t\tmessages.push(\\r\\n            ...\n      SLOAD \t\t\tmessages.push(\\r\\n            ...\n      DUP2 \t\t\tmessages.push(\\r\\n            ...\n      PUSH FFFFFFFFFFFFFFFFFFFFFFFFFFFFFFFFFFFFFFFF\t\t\tmessages.push(\\r\\n            ...\n      MUL \t\t\tmessages.push(\\r\\n            ...\n      NOT \t\t\tmessages.push(\\r\\n            ...\n      AND \t\t\tmessages.push(\\r\\n            ...\n      SWAP1 \t\t\tmessages.push(\\r\\n            ...\n      DUP4 \t\t\tmessages.push(\\r\\n            ...\n      PUSH FFFFFFFFFFFFFFFFFFFFFFFFFFFFFFFFFFFFFFFF\t\t\tmessages.push(\\r\\n            ...\n      AND \t\t\tmessages.push(\\r\\n            ...\n      MUL \t\t\tmessages.push(\\r\\n            ...\n      OR \t\t\tmessages.push(\\r\\n            ...\n      SWAP1 \t\t\tmessages.push(\\r\\n            ...\n      SSTORE \t\t\tmessages.push(\\r\\n            ...\n      POP \t\t\tmessages.push(\\r\\n            ...\n      POP \t\t\tmessages.push(\\r\\n            ...\n      POP \t\t\tmessages.push(\\r\\n            ...\n      CALLER \t\t\tmsg.sender\n      PUSH FFFFFFFFFFFFFFFFFFFFFFFFFFFFFFFFFFFFFFFF\t\t\tMessageStored(_hash, msg.sende...\n      AND \t\t\tMessageStored(_hash, msg.sende...\n      PUSH FC0130F045B99DDC021AB5370F3EBCC300526E38305DC6BBF89079A83ABD3EB8\t\t\tMessageStored(_hash, msg.sende...\n      DUP4 \t\t\t_hash\n      TIMESTAMP \t\t\tblock.timestamp\n      PUSH 40\t\t\tMessageStored(_hash, msg.sende...\n      MLOAD \t\t\tMessageStored(_hash, msg.sende...\n      PUSH [tag] 29\t\t\tMessageStored(_hash, msg.sende...\n      SWAP3 \t\t\tMessageStored(_hash, msg.sende...\n      SWAP2 \t\t\tMessageStored(_hash, msg.sende...\n      SWAP1 \t\t\tMessageStored(_hash, msg.sende...\n      PUSH [tag] 30\t\t\tMessageStored(_hash, msg.sende...\n      JUMP \t\t\tMessageStored(_hash, msg.sende...\n    tag 29\t\t\tMessageStored(_hash, msg.sende...\n      JUMPDEST \t\t\tMessageStored(_hash, msg.sende...\n      PUSH 40\t\t\tMessageStored(_hash, msg.sende...\n      MLOAD \t\t\tMessageStored(_hash, msg.sende...\n      DUP1 \t\t\tMessageStored(_hash, msg.sende...\n      SWAP2 \t\t\tMessageStored(_hash, msg.sende...\n      SUB \t\t\tMessageStored(_hash, msg.sende...\n      SWAP1 \t\t\tMessageStored(_hash, msg.sende...\n      LOG2 \t\t\tMessageStored(_hash, msg.sende...\n      POP \t\t\tfunction storeMessage(\\r\\n    ...\n      POP \t\t\tfunction storeMessage(\\r\\n    ...\n      JUMP \t\t\tfunction storeMessage(\\r\\n    ...\n    tag 14\t\t\tMessage[] public messages\n      JUMPDEST \t\t\tMessage[] public messages\n      PUSH 0\t\t\tMessage[] public messages\n      DUP2 \t\t\tMessage[] public messages\n      DUP2 \t\t\tMessage[] public messages\n      SLOAD \t\t\tMessage[] public messages\n      DUP2 \t\t\tMessage[] public messages\n      LT \t\t\tMessage[] public messages\n      PUSH [tag] 31\t\t\tMessage[] public messages\n      JUMPI \t\t\tMessage[] public messages\n      PUSH 0\t\t\tMessage[] public messages\n      DUP1 \t\t\tMessage[] public messages\n      REVERT \t\t\tMessage[] public messages\n    tag 31\t\t\tMessage[] public messages\n      JUMPDEST \t\t\tMessage[] public messages\n      SWAP1 \t\t\tMessage[] public messages\n      PUSH 0\t\t\tMessage[] public messages\n      MSTORE \t\t\tMessage[] public messages\n      PUSH 20\t\t\tMessage[] public messages\n      PUSH 0\t\t\tMessage[] public messages\n      KECCAK256 \t\t\tMessage[] public messages\n      SWAP1 \t\t\tMessage[] public messages\n      PUSH 4\t\t\tMessage[] public messages\n      MUL \t\t\tMessage[] public messages\n      ADD \t\t\tMessage[] public messages\n      PUSH 0\t\t\tMessage[] public messages\n      SWAP2 \t\t\tMessage[] public messages\n      POP \t\t\tMessage[] public messages\n      SWAP1 \t\t\tMessage[] public messages\n      POP \t\t\tMessage[] public messages\n      DUP1 \t\t\tMessage[] public messages\n      PUSH 0\t\t\tMessage[] public messages\n      ADD \t\t\tMessage[] public messages\n      SLOAD \t\t\tMessage[] public messages\n      SWAP1 \t\t\tMessage[] public messages\n      DUP1 \t\t\tMessage[] public messages\n      PUSH 1\t\t\tMessage[] public messages\n      ADD \t\t\tMessage[] public messages\n      DUP1 \t\t\tMessage[] public messages\n      SLOAD \t\t\tMessage[] public messages\n      PUSH [tag] 33\t\t\tMessage[] public messages\n      SWAP1 \t\t\tMessage[] public messages\n      PUSH [tag] 34\t\t\tMessage[] public messages\n      JUMP \t\t\tMessage[] public messages\n    tag 33\t\t\tMessage[] public messages\n      JUMPDEST \t\t\tMessage[] public messages\n      DUP1 \t\t\tMessage[] public messages\n      PUSH 1F\t\t\tMessage[] public messages\n      ADD \t\t\tMessage[] public messages\n      PUSH 20\t\t\tMessage[] public messages\n      DUP1 \t\t\tMessage[] public messages\n      SWAP2 \t\t\tMessage[] public messages\n      DIV \t\t\tMessage[] public messages\n      MUL \t\t\tMessage[] public messages\n      PUSH 20\t\t\tMessage[] public messages\n      ADD \t\t\tMessage[] public messages\n      PUSH 40\t\t\tMessage[] public messages\n      MLOAD \t\t\tMessage[] public messages\n      SWAP1 \t\t\tMessage[] public messages\n      DUP2 \t\t\tMessage[] public messages\n      ADD \t\t\tMessage[] public messages\n      PUSH 40\t\t\tMessage[] public messages\n      MSTORE \t\t\tMessage[] public messages\n      DUP1 \t\t\tMessage[] public messages\n      SWAP3 \t\t\tMessage[] public messages\n      SWAP2 \t\t\tMessage[] public messages\n      SWAP1 \t\t\tMessage[] public messages\n      DUP2 \t\t\tMessage[] public messages\n      DUP2 \t\t\tMessage[] public messages\n      MSTORE \t\t\tMessage[] public messages\n      PUSH 20\t\t\tMessage[] public messages\n      ADD \t\t\tMessage[] public messages\n      DUP3 \t\t\tMessage[] public messages\n      DUP1 \t\t\tMessage[] public messages\n      SLOAD \t\t\tMessage[] public messages\n      PUSH [tag] 35\t\t\tMessage[] public messages\n      SWAP1 \t\t\tMessage[] public messages\n      PUSH [tag] 34\t\t\tMessage[] public messages\n      JUMP \t\t\tMessage[] public messages\n    tag 35\t\t\tMessage[] public messages\n      JUMPDEST \t\t\tMessage[] public messages\n      DUP1 \t\t\tMessage[] public messages\n      ISZERO \t\t\tMessage[] public messages\n      PUSH [tag] 36\t\t\tMessage[] public messages\n      JUMPI \t\t\tMessage[] public messages\n      DUP1 \t\t\tMessage[] public messages\n      PUSH 1F\t\t\tMessage[] public messages\n      LT \t\t\tMessage[] public messages\n      PUSH [tag] 37\t\t\tMessage[] public messages\n      JUMPI \t\t\tMessage[] public messages\n      PUSH 100\t\t\tMessage[] public messages\n      DUP1 \t\t\tMessage[] public messages\n      DUP4 \t\t\tMessage[] public messages\n      SLOAD \t\t\tMessage[] public messages\n      DIV \t\t\tMessage[] public messages\n      MUL \t\t\tMessage[] public messages\n      DUP4 \t\t\tMessage[] public messages\n      MSTORE \t\t\tMessage[] public messages\n      SWAP2 \t\t\tMessage[] public messages\n      PUSH 20\t\t\tMessage[] public messages\n      ADD \t\t\tMessage[] public messages\n      SWAP2 \t\t\tMessage[] public messages\n      PUSH [tag] 36\t\t\tMessage[] public messages\n      JUMP \t\t\tMessage[] public messages\n    tag 37\t\t\tMessage[] public messages\n      JUMPDEST \t\t\tMessage[] public messages\n      DUP3 \t\t\tMessage[] public messages\n      ADD \t\t\tMessage[] public messages\n      SWAP2 \t\t\tMessage[] public messages\n      SWAP1 \t\t\tMessage[] public messages\n      PUSH 0\t\t\tMessage[] public messages\n      MSTORE \t\t\tMessage[] public messages\n      PUSH 20\t\t\tMessage[] public messages\n      PUSH 0\t\t\tMessage[] public messages\n      KECCAK256 \t\t\tMessage[] public messages\n      SWAP1 \t\t\tMessage[] public messages\n    tag 38\t\t\tMessage[] public messages\n      JUMPDEST \t\t\tMessage[] public messages\n      DUP2 \t\t\tMessage[] public messages\n      SLOAD \t\t\tMessage[] public messages\n      DUP2 \t\t\tMessage[] public messages\n      MSTORE \t\t\tMessage[] public messages\n      SWAP1 \t\t\tMessage[] public messages\n      PUSH 1\t\t\tMessage[] public messages\n      ADD \t\t\tMessage[] public messages\n      SWAP1 \t\t\tMessage[] public messages\n      PUSH 20\t\t\tMessage[] public messages\n      ADD \t\t\tMessage[] public messages\n      DUP1 \t\t\tMessage[] public messages\n      DUP4 \t\t\tMessage[] public messages\n      GT \t\t\tMessage[] public messages\n      PUSH [tag] 38\t\t\tMessage[] public messages\n      JUMPI \t\t\tMessage[] public messages\n      DUP3 \t\t\tMessage[] public messages\n      SWAP1 \t\t\tMessage[] public messages\n      SUB \t\t\tMessage[] public messages\n      PUSH 1F\t\t\tMessage[] public messages\n      AND \t\t\tMessage[] public messages\n      DUP3 \t\t\tMessage[] public messages\n      ADD \t\t\tMessage[] public messages\n      SWAP2 \t\t\tMessage[] public messages\n    tag 36\t\t\tMessage[] public messages\n      JUMPDEST \t\t\tMessage[] public messages\n      POP \t\t\tMessage[] public messages\n      POP \t\t\tMessage[] public messages\n      POP \t\t\tMessage[] public messages\n      POP \t\t\tMessage[] public messages\n      POP \t\t\tMessage[] public messages\n      SWAP1 \t\t\tMessage[] public messages\n      DUP1 \t\t\tMessage[] public messages\n      PUSH 2\t\t\tMessage[] public messages\n      ADD \t\t\tMessage[] public messages\n      SLOAD \t\t\tMessage[] public messages\n      SWAP1 \t\t\tMessage[] public messages\n      DUP1 \t\t\tMessage[] public messages\n      PUSH 3\t\t\tMessage[] public messages\n      ADD \t\t\tMessage[] public messages\n      PUSH 0\t\t\tMessage[] public messages\n      SWAP1 \t\t\tMessage[] public messages\n      SLOAD \t\t\tMessage[] public messages\n      SWAP1 \t\t\tMessage[] public messages\n      PUSH 100\t\t\tMessage[] public messages\n      EXP \t\t\tMessage[] public messages\n      SWAP1 \t\t\tMessage[] public messages\n      DIV \t\t\tMessage[] public messages\n      PUSH FFFFFFFFFFFFFFFFFFFFFFFFFFFFFFFFFFFFFFFF\t\t\tMessage[] public messages\n      AND \t\t\tMessage[] public messages\n      SWAP1 \t\t\tMessage[] public messages\n      POP \t\t\tMessage[] public messages\n      DUP5 \t\t\tMessage[] public messages\n      JUMP \t\t\tMessage[] public messages\n    tag 18\t\t\tfunction getMessageCount() pub...\n      JUMPDEST \t\t\tfunction getMessageCount() pub...\n      PUSH 0\t\t\tuint256\n      DUP1 \t\t\tmessages\n      DUP1 \t\t\tmessages.length\n      SLOAD \t\t\tmessages.length\n      SWAP1 \t\t\tmessages.length\n      POP \t\t\tmessages.length\n      SWAP1 \t\t\treturn messages.length\n      POP \t\t\treturn messages.length\n      SWAP1 \t\t\tfunction getMessageCount() pub...\n      JUMP \t\t\tfunction getMessageCount() pub...\n    tag 23\t\t\tfunction getMessage(uint256 in...\n      JUMPDEST \t\t\tfunction getMessage(uint256 in...\n      PUSH 0\t\t\tbytes32\n      PUSH 60\t\t\tbytes memory\n      PUSH 0\t\t\tuint256\n      DUP1 \t\t\taddress\n      PUSH 0\t\t\tMessage memory m\n      DUP1 \t\t\tmessages\n      DUP7 \t\t\tindex\n      DUP2 \t\t\tmessages[index]\n      SLOAD \t\t\tmessages[index]\n      DUP2 \t\t\tmessages[index]\n      LT \t\t\tmessages[index]\n      PUSH [tag] 41\t\t\tmessages[index]\n      JUMPI \t\t\tmessages[index]\n      PUSH [tag] 42\t\t\tmessages[index]\n      PUSH [tag] 43\t\t\tmessages[index]\n      JUMP \t\t\tmessages[index]\n    tag 42\t\t\tmessages[index]\n      JUMPDEST \t\t\tmessages[index]\n    tag 41\t\t\tmessages[index]\n      JUMPDEST \t\t\tmessages[index]\n      SWAP1 \t\t\tmessages[index]\n      PUSH 0\t\t\tmessages[index]\n      MSTORE \t\t\tmessages[index]\n      PUSH 20\t\t\tmessages[index]\n      PUSH 0\t\t\tmessages[index]\n      KECCAK256 \t\t\tmessages[index]\n      SWAP1 \t\t\tmessages[index]\n      PUSH 4\t\t\tmessages[index]\n      MUL \t\t\tmessages[index]\n      ADD \t\t\tmessages[index]\n      PUSH 40\t\t\tMessage memory m = messages[in...\n      MLOAD \t\t\tMessage memory m = messages[in...\n      DUP1 \t\t\tMessage memory m = messages[in...\n      PUSH 80\t\t\tMessage memory m = messages[in...\n      ADD \t\t\tMessage memory m = messages[in...\n      PUSH 40\t\t\tMessage memory m = messages[in...\n      MSTORE \t\t\tMessage memory m = messages[in...\n      SWAP1 \t\t\tMessage memory m = messages[in...\n      DUP2 \t\t\tMessage memory m = messages[in...\n      PUSH 0\t\t\tMessage memory m = messages[in...\n      DUP3 \t\t\tMessage memory m = messages[in...\n      ADD \t\t\tMessage memory m = messages[in...\n      SLOAD \t\t\tMessage memory m = messages[in...\n      DUP2 \t\t\tMessage memory m = messages[in...\n      MSTORE \t\t\tMessage memory m = messages[in...\n      PUSH 20\t\t\tMessage memory m = messages[in...\n      ADD \t\t\tMessage memory m = messages[in...\n      PUSH 1\t\t\tMessage memory m = messages[in...\n      DUP3 \t\t\tMessage memory m = messages[in...\n      ADD \t\t\tMessage memory m = messages[in...\n      DUP1 \t\t\tMessage memory m = messages[in...\n      SLOAD \t\t\tMessage memory m = messages[in...\n      PUSH [tag] 45\t\t\tMessage memory m = messages[in...\n      SWAP1 \t\t\tMessage memory m = messages[in...\n      PUSH [tag] 34\t\t\tMessage memory m = messages[in...\n      JUMP \t\t\tMessage memory m = messages[in...\n    tag 45\t\t\tMessage memory m = messages[in...\n      JUMPDEST \t\t\tMessage memory m = messages[in...\n      DUP1 \t\t\tMessage memory m = messages[in...\n      PUSH 1F\t\t\tMessage memory m = messages[in...\n      ADD \t\t\tMessage memory m = messages[in...\n      PUSH 20\t\t\tMessage memory m = messages[in...\n      DUP1 \t\t\tMessage memory m = messages[in...\n      SWAP2 \t\t\tMessage memory m = messages[in...\n      DIV \t\t\tMessage memory m = messages[in...\n      MUL \t\t\tMessage memory m = messages[in...\n      PUSH 20\t\t\tMessage memory m = messages[in...\n      ADD \t\t\tMessage memory m = messages[in...\n      PUSH 40\t\t\tMessage memory m = messages[in...\n      MLOAD \t\t\tMessage memory m = messages[in...\n      SWAP1 \t\t\tMessage memory m = messages[in...\n      DUP2 \t\t\tMessage memory m = messages[in...\n      ADD \t\t\tMessage memory m = messages[in...\n      PUSH 40\t\t\tMessage memory m = messages[in...\n      MSTORE \t\t\tMessage memory m = messages[in...\n      DUP1 \t\t\tMessage memory m = messages[in...\n      SWAP3 \t\t\tMessage memory m = messages[in...\n      SWAP2 \t\t\tMessage memory m = messages[in...\n      SWAP1 \t\t\tMessage memory m = messages[in...\n      DUP2 \t\t\tMessage memory m = messages[in...\n      DUP2 \t\t\tMessage memory m = messages[in...\n      MSTORE \t\t\tMessage memory m = messages[in...\n      PUSH 20\t\t\tMessage memory m = messages[in...\n      ADD \t\t\tMessage memory m = messages[in...\n      DUP3 \t\t\tMessage memory m = messages[in...\n      DUP1 \t\t\tMessage memory m = messages[in...\n      SLOAD \t\t\tMessage memory m = messages[in...\n      PUSH [tag] 46\t\t\tMessage memory m = messages[in...\n      SWAP1 \t\t\tMessage memory m = messages[in...\n      PUSH [tag] 34\t\t\tMessage memory m = messages[in...\n      JUMP \t\t\tMessage memory m = messages[in...\n    tag 46\t\t\tMessage memory m = messages[in...\n      JUMPDEST \t\t\tMessage memory m = messages[in...\n      DUP1 \t\t\tMessage memory m = messages[in...\n      ISZERO \t\t\tMessage memory m = messages[in...\n      PUSH [tag] 47\t\t\tMessage memory m = messages[in...\n      JUMPI \t\t\tMessage memory m = messages[in...\n      DUP1 \t\t\tMessage memory m = messages[in...\n      PUSH 1F\t\t\tMessage memory m = messages[in...\n      LT \t\t\tMessage memory m = messages[in...\n      PUSH [tag] 48\t\t\tMessage memory m = messages[in...\n      JUMPI \t\t\tMessage memory m = messages[in...\n      PUSH 100\t\t\tMessage memory m = messages[in...\n      DUP1 \t\t\tMessage memory m = messages[in...\n      DUP4 \t\t\tMessage memory m = messages[in...\n      SLOAD \t\t\tMessage memory m = messages[in...\n      DIV \t\t\tMessage memory m = messages[in...\n      MUL \t\t\tMessage memory m = messages[in...\n      DUP4 \t\t\tMessage memory m = messages[in...\n      MSTORE \t\t\tMessage memory m = messages[in...\n      SWAP2 \t\t\tMessage memory m = messages[in...\n      PUSH 20\t\t\tMessage memory m = messages[in...\n      ADD \t\t\tMessage memory m = messages[in...\n      SWAP2 \t\t\tMessage memory m = messages[in...\n      PUSH [tag] 47\t\t\tMessage memory m = messages[in...\n      JUMP \t\t\tMessage memory m = messages[in...\n    tag 48\t\t\tMessage memory m = messages[in...\n      JUMPDEST \t\t\tMessage memory m = messages[in...\n      DUP3 \t\t\tMessage memory m = messages[in...\n      ADD \t\t\tMessage memory m = messages[in...\n      SWAP2 \t\t\tMessage memory m = messages[in...\n      SWAP1 \t\t\tMessage memory m = messages[in...\n      PUSH 0\t\t\tMessage memory m = messages[in...\n      MSTORE \t\t\tMessage memory m = messages[in...\n      PUSH 20\t\t\tMessage memory m = messages[in...\n      PUSH 0\t\t\tMessage memory m = messages[in...\n      KECCAK256 \t\t\tMessage memory m = messages[in...\n      SWAP1 \t\t\tMessage memory m = messages[in...\n    tag 49\t\t\tMessage memory m = messages[in...\n      JUMPDEST \t\t\tMessage memory m = messages[in...\n      DUP2 \t\t\tMessage memory m = messages[in...\n      SLOAD \t\t\tMessage memory m = messages[in...\n      DUP2 \t\t\tMessage memory m = messages[in...\n      MSTORE \t\t\tMessage memory m = messages[in...\n      SWAP1 \t\t\tMessage memory m = messages[in...\n      PUSH 1\t\t\tMessage memory m = messages[in...\n      ADD \t\t\tMessage memory m = messages[in...\n      SWAP1 \t\t\tMessage memory m = messages[in...\n      PUSH 20\t\t\tMessage memory m = messages[in...\n      ADD \t\t\tMessage memory m = messages[in...\n      DUP1 \t\t\tMessage memory m = messages[in...\n      DUP4 \t\t\tMessage memory m = messages[in...\n      GT \t\t\tMessage memory m = messages[in...\n      PUSH [tag] 49\t\t\tMessage memory m = messages[in...\n      JUMPI \t\t\tMessage memory m = messages[in...\n      DUP3 \t\t\tMessage memory m = messages[in...\n      SWAP1 \t\t\tMessage memory m = messages[in...\n      SUB \t\t\tMessage memory m = messages[in...\n      PUSH 1F\t\t\tMessage memory m = messages[in...\n      AND \t\t\tMessage memory m = messages[in...\n      DUP3 \t\t\tMessage memory m = messages[in...\n      ADD \t\t\tMessage memory m = messages[in...\n      SWAP2 \t\t\tMessage memory m = messages[in...\n    tag 47\t\t\tMessage memory m = messages[in...\n      JUMPDEST \t\t\tMessage memory m = messages[in...\n      POP \t\t\tMessage memory m = messages[in...\n      POP \t\t\tMessage memory m = messages[in...\n      POP \t\t\tMessage memory m = messages[in...\n      POP \t\t\tMessage memory m = messages[in...\n      POP \t\t\tMessage memory m = messages[in...\n      DUP2 \t\t\tMessage memory m = messages[in...\n      MSTORE \t\t\tMessage memory m = messages[in...\n      PUSH 20\t\t\tMessage memory m = messages[in...\n      ADD \t\t\tMessage memory m = messages[in...\n      PUSH 2\t\t\tMessage memory m = messages[in...\n      DUP3 \t\t\tMessage memory m = messages[in...\n      ADD \t\t\tMessage memory m = messages[in...\n      SLOAD \t\t\tMessage memory m = messages[in...\n      DUP2 \t\t\tMessage memory m = messages[in...\n      MSTORE \t\t\tMessage memory m = messages[in...\n      PUSH 20\t\t\tMessage memory m = messages[in...\n      ADD \t\t\tMessage memory m = messages[in...\n      PUSH 3\t\t\tMessage memory m = messages[in...\n      DUP3 \t\t\tMessage memory m = messages[in...\n      ADD \t\t\tMessage memory m = messages[in...\n      PUSH 0\t\t\tMessage memory m = messages[in...\n      SWAP1 \t\t\tMessage memory m = messages[in...\n      SLOAD \t\t\tMessage memory m = messages[in...\n      SWAP1 \t\t\tMessage memory m = messages[in...\n      PUSH 100\t\t\tMessage memory m = messages[in...\n      EXP \t\t\tMessage memory m = messages[in...\n      SWAP1 \t\t\tMessage memory m = messages[in...\n      DIV \t\t\tMessage memory m = messages[in...\n      PUSH FFFFFFFFFFFFFFFFFFFFFFFFFFFFFFFFFFFFFFFF\t\t\tMessage memory m = messages[in...\n      AND \t\t\tMessage memory m = messages[in...\n      PUSH FFFFFFFFFFFFFFFFFFFFFFFFFFFFFFFFFFFFFFFF\t\t\tMessage memory m = messages[in...\n      AND \t\t\tMessage memory m = messages[in...\n      PUSH FFFFFFFFFFFFFFFFFFFFFFFFFFFFFFFFFFFFFFFF\t\t\tMessage memory m = messages[in...\n      AND \t\t\tMessage memory m = messages[in...\n      DUP2 \t\t\tMessage memory m = messages[in...\n      MSTORE \t\t\tMessage memory m = messages[in...\n      POP \t\t\tMessage memory m = messages[in...\n      POP \t\t\tMessage memory m = messages[in...\n      SWAP1 \t\t\tMessage memory m = messages[in...\n      POP \t\t\tMessage memory m = messages[in...\n      DUP1 \t\t\tm\n      PUSH 0\t\t\tm.hash\n      ADD \t\t\tm.hash\n      MLOAD \t\t\tm.hash\n      DUP2 \t\t\tm\n      PUSH 20\t\t\tm.signature\n      ADD \t\t\tm.signature\n      MLOAD \t\t\tm.signature\n      DUP3 \t\t\tm\n      PUSH 40\t\t\tm.timestamp\n      ADD \t\t\tm.timestamp\n      MLOAD \t\t\tm.timestamp\n      DUP4 \t\t\tm\n      PUSH 60\t\t\tm.sender\n      ADD \t\t\tm.sender\n      MLOAD \t\t\tm.sender\n      SWAP5 \t\t\treturn (\\r\\n            m.hash...\n      POP \t\t\treturn (\\r\\n            m.hash...\n      SWAP5 \t\t\treturn (\\r\\n            m.hash...\n      POP \t\t\treturn (\\r\\n            m.hash...\n      SWAP5 \t\t\treturn (\\r\\n            m.hash...\n      POP \t\t\treturn (\\r\\n            m.hash...\n      SWAP5 \t\t\treturn (\\r\\n            m.hash...\n      POP \t\t\treturn (\\r\\n            m.hash...\n      POP \t\t\treturn (\\r\\n            m.hash...\n      SWAP2 \t\t\tfunction getMessage(uint256 in...\n      SWAP4 \t\t\tfunction getMessage(uint256 in...\n      POP \t\t\tfunction getMessage(uint256 in...\n      SWAP2 \t\t\tfunction getMessage(uint256 in...\n      SWAP4 \t\t\tfunction getMessage(uint256 in...\n      JUMP \t\t\tfunction getMessage(uint256 in...\n    tag 50\t\t\t-License-Identifier: MIT\\r\\npr...\n      JUMPDEST \t\t\t-License-Identifier: MIT\\r\\npr...\n      PUSH 0\t\t\tsolidi\n      PUSH 40\t\t\tur\n      MLOAD \t\t\tct Secure\n      SWAP1 \t\t\t\\r\\n\\r\\ncontract Secure\n      POP \t\t\t\\r\\n\\r\\ncontract Secure\n      SWAP1 \t\t\t-License-Identifier: MIT\\r\\npr...\n      JUMP \t\t\t-License-Identifier: MIT\\r\\npr...\n    tag 51\t\t\t  struct Message {\\r\\n        ...\n      JUMPDEST \t\t\t  struct Message {\\r\\n        ...\n      PUSH 0\t\t\te\n      DUP1 \t\t\td\n      REVERT \t\t\t      addres\n    tag 52\t\t\t   }\\r\\n\\r\\n    Message[] publ...\n      JUMPDEST \t\t\t   }\\r\\n\\r\\n    Message[] publ...\n      PUSH 0\t\t\td\n      DUP1 \t\t\t \n      REVERT \t\t\taddress inde\n    tag 53\t\t\t\\n        uint256 timestamp\\r\\...\n      JUMPDEST \t\t\t\\n        uint256 timestamp\\r\\...\n      PUSH 0\t\t\t\\n    fu\n      DUP2 \t\t\t     \n      SWAP1 \t\t\teMessage(\\r\\n     \n      POP \t\t\teMessage(\\r\\n     \n      SWAP2 \t\t\t\\n        uint256 timestamp\\r\\...\n      SWAP1 \t\t\t\\n        uint256 timestamp\\r\\...\n      POP \t\t\t\\n        uint256 timestamp\\r\\...\n      JUMP \t\t\t\\n        uint256 timestamp\\r\\...\n    tag 54\t\t\thash,\\r\\n        bytes memory ...\n      JUMPDEST \t\t\thash,\\r\\n        bytes memory ...\n      PUSH [tag] 100\t\t\tpush(\\r\\n            Messa\n      DUP2 \t\t\t Mess\n      PUSH [tag] 53\t\t\tpush(\\r\\n            Messa\n      JUMP \t\t\tpush(\\r\\n            Messa\n    tag 100\t\t\tpush(\\r\\n            Messa\n      JUMPDEST \t\t\tpush(\\r\\n            Messa\n      DUP2 \t\t\tssage\n      EQ \t\t\t messages.push(\\r\\n           ...\n      PUSH [tag] 101\t\t\t{\\r\\n        messages.push(\\r\\...\n      JUMPI \t\t\t{\\r\\n        messages.push(\\r\\...\n      PUSH 0\t\t\t \n      DUP1 \t\t\t \n      REVERT \t\t\t            \n    tag 101\t\t\t{\\r\\n        messages.push(\\r\\...\n      JUMPDEST \t\t\t{\\r\\n        messages.push(\\r\\...\n      POP \t\t\thash,\\r\\n        bytes memory ...\n      JUMP \t\t\thash,\\r\\n        bytes memory ...\n    tag 55\t\t\t              _signature,\\r\\n ...\n      JUMPDEST \t\t\t              _signature,\\r\\n ...\n      PUSH 0\t\t\tck.ti\n      DUP2 \t\t\tder\\r\\n \n      CALLDATALOAD \t\t\t      msg.sender\\r\\n  \n      SWAP1 \t\t\t               msg.sender\\r\\n ...\n      POP \t\t\t               msg.sender\\r\\n ...\n      PUSH [tag] 103\t\t\t )\\r\\n        );\\r\\n\\r\\n      ...\n      DUP2 \t\t\tmit M\n      PUSH [tag] 54\t\t\t )\\r\\n        );\\r\\n\\r\\n      ...\n      JUMP \t\t\t )\\r\\n        );\\r\\n\\r\\n      ...\n    tag 103\t\t\t )\\r\\n        );\\r\\n\\r\\n      ...\n      JUMPDEST \t\t\t )\\r\\n        );\\r\\n\\r\\n      ...\n      SWAP3 \t\t\t              _signature,\\r\\n ...\n      SWAP2 \t\t\t              _signature,\\r\\n ...\n      POP \t\t\t              _signature,\\r\\n ...\n      POP \t\t\t              _signature,\\r\\n ...\n      JUMP \t\t\t              _signature,\\r\\n ...\n    tag 56\t\t\t_hash, msg.sender, block.times...\n      JUMPDEST \t\t\t_hash, msg.sender, block.times...\n      PUSH 0\t\t\t \n      DUP1 \t\t\t \n      REVERT \t\t\tic\\r\\n        \n    tag 57\t\t\t  returns (\\r\\n            byt...\n      JUMPDEST \t\t\t  returns (\\r\\n            byt...\n      PUSH 0\t\t\t \n      DUP1 \t\t\t \n      REVERT \t\t\tress\\r\\n      \n    tag 58\t\t\t        Message memory m = mes...\n      JUMPDEST \t\t\t        Message memory m = mes...\n      PUSH 0\t\t\t];\\r\\n  \n      PUSH 1F\t\t\t  \n      NOT \t\t\t       \n      PUSH 1F\t\t\t\\n \n      DUP4 \t\t\t.hash\n      ADD \t\t\t   m.hash,\\r\\n  \n      AND \t\t\t       m.hash,\\r\\n            \n      SWAP1 \t\t\tn (\\r\\n            m.hash,\\r\\n...\n      POP \t\t\tn (\\r\\n            m.hash,\\r\\n...\n      SWAP2 \t\t\t        Message memory m = mes...\n      SWAP1 \t\t\t        Message memory m = mes...\n      POP \t\t\t        Message memory m = mes...\n      JUMP \t\t\t        Message memory m = mes...\n    tag 59\t\t\t\\r\\n            m.timestamp,\\r...\n      JUMPDEST \t\t\t\\r\\n            m.timestamp,\\r...\n      PUSH 4E487B7100000000000000000000000000000000000000000000000000000000\t\t\t\\r\\n        );\\r\\n    }\\r\\n\\r\\...\n      PUSH 0\t\t\td\n      MSTORE \t\t\t  m.sender\\r\\n        );\\r\\n  ...\n      PUSH 41\t\t\tturn\n      PUSH 4\t\t\t \n      MSTORE \t\t\t        return \n      PUSH 24\t\t\t   }\n      PUSH 0\t\t\t\\r\n      REVERT \t\t\tlength;\\r\\n    }\\r\n    tag 60\t\t\t\n      JUMPDEST \t\t\t\n      PUSH [tag] 109\t\t\t\n      DUP3 \t\t\t\n      PUSH [tag] 58\t\t\t\n      JUMP \t\t\t\n    tag 109\t\t\t\n      JUMPDEST \t\t\t\n      DUP2 \t\t\t\n      ADD \t\t\t\n      DUP2 \t\t\t\n      DUP2 \t\t\t\n      LT \t\t\t\n      PUSH FFFFFFFFFFFFFFFF\t\t\t\n      DUP3 \t\t\t\n      GT \t\t\t\n      OR \t\t\t\n      ISZERO \t\t\t\n      PUSH [tag] 110\t\t\t\n      JUMPI \t\t\t\n      PUSH [tag] 111\t\t\t\n      PUSH [tag] 59\t\t\t\n      JUMP \t\t\t\n    tag 111\t\t\t\n      JUMPDEST \t\t\t\n    tag 110\t\t\t\n      JUMPDEST \t\t\t\n      DUP1 \t\t\t\n      PUSH 40\t\t\t\n      MSTORE \t\t\t\n      POP \t\t\t\n      POP \t\t\t\n      POP \t\t\t\n      JUMP \t\t\t\n    tag 61\t\t\t\n      JUMPDEST \t\t\t\n      PUSH 0\t\t\t\n      PUSH [tag] 113\t\t\t\n      PUSH [tag] 50\t\t\t\n      JUMP \t\t\t\n    tag 113\t\t\t\n      JUMPDEST \t\t\t\n      SWAP1 \t\t\t\n      POP \t\t\t\n      PUSH [tag] 114\t\t\t\n      DUP3 \t\t\t\n      DUP3 \t\t\t\n      PUSH [tag] 60\t\t\t\n      JUMP \t\t\t\n    tag 114\t\t\t\n      JUMPDEST \t\t\t\n      SWAP2 \t\t\t\n      SWAP1 \t\t\t\n      POP \t\t\t\n      JUMP \t\t\t\n    tag 62\t\t\t\n      JUMPDEST \t\t\t\n      PUSH 0\t\t\t\n      PUSH FFFFFFFFFFFFFFFF\t\t\t\n      DUP3 \t\t\t\n      GT \t\t\t\n      ISZERO \t\t\t\n      PUSH [tag] 116\t\t\t\n      JUMPI \t\t\t\n      PUSH [tag] 117\t\t\t\n      PUSH [tag] 59\t\t\t\n      JUMP \t\t\t\n    tag 117\t\t\t\n      JUMPDEST \t\t\t\n    tag 116\t\t\t\n      JUMPDEST \t\t\t\n      PUSH [tag] 118\t\t\t\n      DUP3 \t\t\t\n      PUSH [tag] 58\t\t\t\n      JUMP \t\t\t\n    tag 118\t\t\t\n      JUMPDEST \t\t\t\n      SWAP1 \t\t\t\n      POP \t\t\t\n      PUSH 20\t\t\t\n      DUP2 \t\t\t\n      ADD \t\t\t\n      SWAP1 \t\t\t\n      POP \t\t\t\n      SWAP2 \t\t\t\n      SWAP1 \t\t\t\n      POP \t\t\t\n      JUMP \t\t\t\n    tag 63\t\t\t\n      JUMPDEST \t\t\t\n      DUP3 \t\t\t\n      DUP2 \t\t\t\n      DUP4 \t\t\t\n      CALLDATACOPY \t\t\t\n      PUSH 0\t\t\t\n      DUP4 \t\t\t\n      DUP4 \t\t\t\n      ADD \t\t\t\n      MSTORE \t\t\t\n      POP \t\t\t\n      POP \t\t\t\n      POP \t\t\t\n      JUMP \t\t\t\n    tag 64\t\t\t\n      JUMPDEST \t\t\t\n      PUSH 0\t\t\t\n      PUSH [tag] 121\t\t\t\n      PUSH [tag] 122\t\t\t\n      DUP5 \t\t\t\n      PUSH [tag] 62\t\t\t\n      JUMP \t\t\t\n    tag 122\t\t\t\n      JUMPDEST \t\t\t\n      PUSH [tag] 61\t\t\t\n      JUMP \t\t\t\n    tag 121\t\t\t\n      JUMPDEST \t\t\t\n      SWAP1 \t\t\t\n      POP \t\t\t\n      DUP3 \t\t\t\n      DUP2 \t\t\t\n      MSTORE \t\t\t\n      PUSH 20\t\t\t\n      DUP2 \t\t\t\n      ADD \t\t\t\n      DUP5 \t\t\t\n      DUP5 \t\t\t\n      DUP5 \t\t\t\n      ADD \t\t\t\n      GT \t\t\t\n      ISZERO \t\t\t\n      PUSH [tag] 123\t\t\t\n      JUMPI \t\t\t\n      PUSH [tag] 124\t\t\t\n      PUSH [tag] 57\t\t\t\n      JUMP \t\t\t\n    tag 124\t\t\t\n      JUMPDEST \t\t\t\n    tag 123\t\t\t\n      JUMPDEST \t\t\t\n      PUSH [tag] 125\t\t\t\n      DUP5 \t\t\t\n      DUP3 \t\t\t\n      DUP6 \t\t\t\n      PUSH [tag] 63\t\t\t\n      JUMP \t\t\t\n    tag 125\t\t\t\n      JUMPDEST \t\t\t\n      POP \t\t\t\n      SWAP4 \t\t\t\n      SWAP3 \t\t\t\n      POP \t\t\t\n      POP \t\t\t\n      POP \t\t\t\n      JUMP \t\t\t\n    tag 65\t\t\t\n      JUMPDEST \t\t\t\n      PUSH 0\t\t\t\n      DUP3 \t\t\t\n      PUSH 1F\t\t\t\n      DUP4 \t\t\t\n      ADD \t\t\t\n      SLT \t\t\t\n      PUSH [tag] 127\t\t\t\n      JUMPI \t\t\t\n      PUSH [tag] 128\t\t\t\n      PUSH [tag] 56\t\t\t\n      JUMP \t\t\t\n    tag 128\t\t\t\n      JUMPDEST \t\t\t\n    tag 127\t\t\t\n      JUMPDEST \t\t\t\n      DUP2 \t\t\t\n      CALLDATALOAD \t\t\t\n      PUSH [tag] 129\t\t\t\n      DUP5 \t\t\t\n      DUP3 \t\t\t\n      PUSH 20\t\t\t\n      DUP7 \t\t\t\n      ADD \t\t\t\n      PUSH [tag] 64\t\t\t\n      JUMP \t\t\t\n    tag 129\t\t\t\n      JUMPDEST \t\t\t\n      SWAP2 \t\t\t\n      POP \t\t\t\n      POP \t\t\t\n      SWAP3 \t\t\t\n      SWAP2 \t\t\t\n      POP \t\t\t\n      POP \t\t\t\n      JUMP \t\t\t\n    tag 9\t\t\t\n      JUMPDEST \t\t\t\n      PUSH 0\t\t\t\n      DUP1 \t\t\t\n      PUSH 40\t\t\t\n      DUP4 \t\t\t\n      DUP6 \t\t\t\n      SUB \t\t\t\n      SLT \t\t\t\n      ISZERO \t\t\t\n      PUSH [tag] 131\t\t\t\n      JUMPI \t\t\t\n      PUSH [tag] 132\t\t\t\n      PUSH [tag] 51\t\t\t\n      JUMP \t\t\t\n    tag 132\t\t\t\n      JUMPDEST \t\t\t\n    tag 131\t\t\t\n      JUMPDEST \t\t\t\n      PUSH 0\t\t\t\n      PUSH [tag] 133\t\t\t\n      DUP6 \t\t\t\n      DUP3 \t\t\t\n      DUP7 \t\t\t\n      ADD \t\t\t\n      PUSH [tag] 55\t\t\t\n      JUMP \t\t\t\n    tag 133\t\t\t\n      JUMPDEST \t\t\t\n      SWAP3 \t\t\t\n      POP \t\t\t\n      POP \t\t\t\n      PUSH 20\t\t\t\n      DUP4 \t\t\t\n      ADD \t\t\t\n      CALLDATALOAD \t\t\t\n      PUSH FFFFFFFFFFFFFFFF\t\t\t\n      DUP2 \t\t\t\n      GT \t\t\t\n      ISZERO \t\t\t\n      PUSH [tag] 134\t\t\t\n      JUMPI \t\t\t\n      PUSH [tag] 135\t\t\t\n      PUSH [tag] 52\t\t\t\n      JUMP \t\t\t\n    tag 135\t\t\t\n      JUMPDEST \t\t\t\n    tag 134\t\t\t\n      JUMPDEST \t\t\t\n      PUSH [tag] 136\t\t\t\n      DUP6 \t\t\t\n      DUP3 \t\t\t\n      DUP7 \t\t\t\n      ADD \t\t\t\n      PUSH [tag] 65\t\t\t\n      JUMP \t\t\t\n    tag 136\t\t\t\n      JUMPDEST \t\t\t\n      SWAP2 \t\t\t\n      POP \t\t\t\n      POP \t\t\t\n      SWAP3 \t\t\t\n      POP \t\t\t\n      SWAP3 \t\t\t\n      SWAP1 \t\t\t\n      POP \t\t\t\n      JUMP \t\t\t\n    tag 66\t\t\t\n      JUMPDEST \t\t\t\n      PUSH 0\t\t\t\n      DUP2 \t\t\t\n      SWAP1 \t\t\t\n      POP \t\t\t\n      SWAP2 \t\t\t\n      SWAP1 \t\t\t\n      POP \t\t\t\n      JUMP \t\t\t\n    tag 67\t\t\t\n      JUMPDEST \t\t\t\n      PUSH [tag] 139\t\t\t\n      DUP2 \t\t\t\n      PUSH [tag] 66\t\t\t\n      JUMP \t\t\t\n    tag 139\t\t\t\n      JUMPDEST \t\t\t\n      DUP2 \t\t\t\n      EQ \t\t\t\n      PUSH [tag] 140\t\t\t\n      JUMPI \t\t\t\n      PUSH 0\t\t\t\n      DUP1 \t\t\t\n      REVERT \t\t\t\n    tag 140\t\t\t\n      JUMPDEST \t\t\t\n      POP \t\t\t\n      JUMP \t\t\t\n    tag 68\t\t\t\n      JUMPDEST \t\t\t\n      PUSH 0\t\t\t\n      DUP2 \t\t\t\n      CALLDATALOAD \t\t\t\n      SWAP1 \t\t\t\n      POP \t\t\t\n      PUSH [tag] 142\t\t\t\n      DUP2 \t\t\t\n      PUSH [tag] 67\t\t\t\n      JUMP \t\t\t\n    tag 142\t\t\t\n      JUMPDEST \t\t\t\n      SWAP3 \t\t\t\n      SWAP2 \t\t\t\n      POP \t\t\t\n      POP \t\t\t\n      JUMP \t\t\t\n    tag 13\t\t\t\n      JUMPDEST \t\t\t\n      PUSH 0\t\t\t\n      PUSH 20\t\t\t\n      DUP3 \t\t\t\n      DUP5 \t\t\t\n      SUB \t\t\t\n      SLT \t\t\t\n      ISZERO \t\t\t\n      PUSH [tag] 144\t\t\t\n      JUMPI \t\t\t\n      PUSH [tag] 145\t\t\t\n      PUSH [tag] 51\t\t\t\n      JUMP \t\t\t\n    tag 145\t\t\t\n      JUMPDEST \t\t\t\n    tag 144\t\t\t\n      JUMPDEST \t\t\t\n      PUSH 0\t\t\t\n      PUSH [tag] 146\t\t\t\n      DUP5 \t\t\t\n      DUP3 \t\t\t\n      DUP6 \t\t\t\n      ADD \t\t\t\n      PUSH [tag] 68\t\t\t\n      JUMP \t\t\t\n    tag 146\t\t\t\n      JUMPDEST \t\t\t\n      SWAP2 \t\t\t\n      POP \t\t\t\n      POP \t\t\t\n      SWAP3 \t\t\t\n      SWAP2 \t\t\t\n      POP \t\t\t\n      POP \t\t\t\n      JUMP \t\t\t\n    tag 69\t\t\t\n      JUMPDEST \t\t\t\n      PUSH [tag] 148\t\t\t\n      DUP2 \t\t\t\n      PUSH [tag] 53\t\t\t\n      JUMP \t\t\t\n    tag 148\t\t\t\n      JUMPDEST \t\t\t\n      DUP3 \t\t\t\n      MSTORE \t\t\t\n      POP \t\t\t\n      POP \t\t\t\n      JUMP \t\t\t\n    tag 70\t\t\t\n      JUMPDEST \t\t\t\n      PUSH 0\t\t\t\n      DUP2 \t\t\t\n      MLOAD \t\t\t\n      SWAP1 \t\t\t\n      POP \t\t\t\n      SWAP2 \t\t\t\n      SWAP1 \t\t\t\n      POP \t\t\t\n      JUMP \t\t\t\n    tag 71\t\t\t\n      JUMPDEST \t\t\t\n      PUSH 0\t\t\t\n      DUP3 \t\t\t\n      DUP3 \t\t\t\n      MSTORE \t\t\t\n      PUSH 20\t\t\t\n      DUP3 \t\t\t\n      ADD \t\t\t\n      SWAP1 \t\t\t\n      POP \t\t\t\n      SWAP3 \t\t\t\n      SWAP2 \t\t\t\n      POP \t\t\t\n      POP \t\t\t\n      JUMP \t\t\t\n    tag 72\t\t\t\n      JUMPDEST \t\t\t\n      PUSH 0\t\t\t\n    tag 152\t\t\t\n      JUMPDEST \t\t\t\n      DUP4 \t\t\t\n      DUP2 \t\t\t\n      LT \t\t\t\n      ISZERO \t\t\t\n      PUSH [tag] 154\t\t\t\n      JUMPI \t\t\t\n      DUP1 \t\t\t\n      DUP3 \t\t\t\n      ADD \t\t\t\n      MLOAD \t\t\t\n      DUP2 \t\t\t\n      DUP5 \t\t\t\n      ADD \t\t\t\n      MSTORE \t\t\t\n      PUSH 20\t\t\t\n      DUP2 \t\t\t\n      ADD \t\t\t\n      SWAP1 \t\t\t\n      POP \t\t\t\n      PUSH [tag] 152\t\t\t\n      JUMP \t\t\t\n    tag 154\t\t\t\n      JUMPDEST \t\t\t\n      PUSH 0\t\t\t\n      DUP5 \t\t\t\n      DUP5 \t\t\t\n      ADD \t\t\t\n      MSTORE \t\t\t\n      POP \t\t\t\n      POP \t\t\t\n      POP \t\t\t\n      POP \t\t\t\n      JUMP \t\t\t\n    tag 73\t\t\t\n      JUMPDEST \t\t\t\n      PUSH 0\t\t\t\n      PUSH [tag] 156\t\t\t\n      DUP3 \t\t\t\n      PUSH [tag] 70\t\t\t\n      JUMP \t\t\t\n    tag 156\t\t\t\n      JUMPDEST \t\t\t\n      PUSH [tag] 157\t\t\t\n      DUP2 \t\t\t\n      DUP6 \t\t\t\n      PUSH [tag] 71\t\t\t\n      JUMP \t\t\t\n    tag 157\t\t\t\n      JUMPDEST \t\t\t\n      SWAP4 \t\t\t\n      POP \t\t\t\n      PUSH [tag] 158\t\t\t\n      DUP2 \t\t\t\n      DUP6 \t\t\t\n      PUSH 20\t\t\t\n      DUP7 \t\t\t\n      ADD \t\t\t\n      PUSH [tag] 72\t\t\t\n      JUMP \t\t\t\n    tag 158\t\t\t\n      JUMPDEST \t\t\t\n      PUSH [tag] 159\t\t\t\n      DUP2 \t\t\t\n      PUSH [tag] 58\t\t\t\n      JUMP \t\t\t\n    tag 159\t\t\t\n      JUMPDEST \t\t\t\n      DUP5 \t\t\t\n      ADD \t\t\t\n      SWAP2 \t\t\t\n      POP \t\t\t\n      POP \t\t\t\n      SWAP3 \t\t\t\n      SWAP2 \t\t\t\n      POP \t\t\t\n      POP \t\t\t\n      JUMP \t\t\t\n    tag 74\t\t\t\n      JUMPDEST \t\t\t\n      PUSH [tag] 161\t\t\t\n      DUP2 \t\t\t\n      PUSH [tag] 66\t\t\t\n      JUMP \t\t\t\n    tag 161\t\t\t\n      JUMPDEST \t\t\t\n      DUP3 \t\t\t\n      MSTORE \t\t\t\n      POP \t\t\t\n      POP \t\t\t\n      JUMP \t\t\t\n    tag 75\t\t\t\n      JUMPDEST \t\t\t\n      PUSH 0\t\t\t\n      PUSH FFFFFFFFFFFFFFFFFFFFFFFFFFFFFFFFFFFFFFFF\t\t\t\n      DUP3 \t\t\t\n      AND \t\t\t\n      SWAP1 \t\t\t\n      POP \t\t\t\n      SWAP2 \t\t\t\n      SWAP1 \t\t\t\n      POP \t\t\t\n      JUMP \t\t\t\n    tag 76\t\t\t\n      JUMPDEST \t\t\t\n      PUSH 0\t\t\t\n      PUSH [tag] 164\t\t\t\n      DUP3 \t\t\t\n      PUSH [tag] 75\t\t\t\n      JUMP \t\t\t\n    tag 164\t\t\t\n      JUMPDEST \t\t\t\n      SWAP1 \t\t\t\n      POP \t\t\t\n      SWAP2 \t\t\t\n      SWAP1 \t\t\t\n      POP \t\t\t\n      JUMP \t\t\t\n    tag 77\t\t\t\n      JUMPDEST \t\t\t\n      PUSH [tag] 166\t\t\t\n      DUP2 \t\t\t\n      PUSH [tag] 76\t\t\t\n      JUMP \t\t\t\n    tag 166\t\t\t\n      JUMPDEST \t\t\t\n      DUP3 \t\t\t\n      MSTORE \t\t\t\n      POP \t\t\t\n      POP \t\t\t\n      JUMP \t\t\t\n    tag 16\t\t\t\n      JUMPDEST \t\t\t\n      PUSH 0\t\t\t\n      PUSH 80\t\t\t\n      DUP3 \t\t\t\n      ADD \t\t\t\n      SWAP1 \t\t\t\n      POP \t\t\t\n      PUSH [tag] 168\t\t\t\n      PUSH 0\t\t\t\n      DUP4 \t\t\t\n      ADD \t\t\t\n      DUP8 \t\t\t\n      PUSH [tag] 69\t\t\t\n      JUMP \t\t\t\n    tag 168\t\t\t\n      JUMPDEST \t\t\t\n      DUP2 \t\t\t\n      DUP2 \t\t\t\n      SUB \t\t\t\n      PUSH 20\t\t\t\n      DUP4 \t\t\t\n      ADD \t\t\t\n      MSTORE \t\t\t\n      PUSH [tag] 169\t\t\t\n      DUP2 \t\t\t\n      DUP7 \t\t\t\n      PUSH [tag] 73\t\t\t\n      JUMP \t\t\t\n    tag 169\t\t\t\n      JUMPDEST \t\t\t\n      SWAP1 \t\t\t\n      POP \t\t\t\n      PUSH [tag] 170\t\t\t\n      PUSH 40\t\t\t\n      DUP4 \t\t\t\n      ADD \t\t\t\n      DUP6 \t\t\t\n      PUSH [tag] 74\t\t\t\n      JUMP \t\t\t\n    tag 170\t\t\t\n      JUMPDEST \t\t\t\n      PUSH [tag] 171\t\t\t\n      PUSH 60\t\t\t\n      DUP4 \t\t\t\n      ADD \t\t\t\n      DUP5 \t\t\t\n      PUSH [tag] 77\t\t\t\n      JUMP \t\t\t\n    tag 171\t\t\t\n      JUMPDEST \t\t\t\n      SWAP6 \t\t\t\n      SWAP5 \t\t\t\n      POP \t\t\t\n      POP \t\t\t\n      POP \t\t\t\n      POP \t\t\t\n      POP \t\t\t\n      JUMP \t\t\t\n    tag 20\t\t\t\n      JUMPDEST \t\t\t\n      PUSH 0\t\t\t\n      PUSH 20\t\t\t\n      DUP3 \t\t\t\n      ADD \t\t\t\n      SWAP1 \t\t\t\n      POP \t\t\t\n      PUSH [tag] 173\t\t\t\n      PUSH 0\t\t\t\n      DUP4 \t\t\t\n      ADD \t\t\t\n      DUP5 \t\t\t\n      PUSH [tag] 74\t\t\t\n      JUMP \t\t\t\n    tag 173\t\t\t\n      JUMPDEST \t\t\t\n      SWAP3 \t\t\t\n      SWAP2 \t\t\t\n      POP \t\t\t\n      POP \t\t\t\n      JUMP \t\t\t\n    tag 78\t\t\t\n      JUMPDEST \t\t\t\n      PUSH 4E487B7100000000000000000000000000000000000000000000000000000000\t\t\t\n      PUSH 0\t\t\t\n      MSTORE \t\t\t\n      PUSH 22\t\t\t\n      PUSH 4\t\t\t\n      MSTORE \t\t\t\n      PUSH 24\t\t\t\n      PUSH 0\t\t\t\n      REVERT \t\t\t\n    tag 34\t\t\t\n      JUMPDEST \t\t\t\n      PUSH 0\t\t\t\n      PUSH 2\t\t\t\n      DUP3 \t\t\t\n      DIV \t\t\t\n      SWAP1 \t\t\t\n      POP \t\t\t\n      PUSH 1\t\t\t\n      DUP3 \t\t\t\n      AND \t\t\t\n      DUP1 \t\t\t\n      PUSH [tag] 176\t\t\t\n      JUMPI \t\t\t\n      PUSH 7F\t\t\t\n      DUP3 \t\t\t\n      AND \t\t\t\n      SWAP2 \t\t\t\n      POP \t\t\t\n    tag 176\t\t\t\n      JUMPDEST \t\t\t\n      PUSH 20\t\t\t\n      DUP3 \t\t\t\n      LT \t\t\t\n      DUP2 \t\t\t\n      SUB \t\t\t\n      PUSH [tag] 177\t\t\t\n      JUMPI \t\t\t\n      PUSH [tag] 178\t\t\t\n      PUSH [tag] 78\t\t\t\n      JUMP \t\t\t\n    tag 178\t\t\t\n      JUMPDEST \t\t\t\n    tag 177\t\t\t\n      JUMPDEST \t\t\t\n      POP \t\t\t\n      SWAP2 \t\t\t\n      SWAP1 \t\t\t\n      POP \t\t\t\n      JUMP \t\t\t\n    tag 79\t\t\t\n      JUMPDEST \t\t\t\n      PUSH 0\t\t\t\n      DUP2 \t\t\t\n      SWAP1 \t\t\t\n      POP \t\t\t\n      DUP2 \t\t\t\n      PUSH 0\t\t\t\n      MSTORE \t\t\t\n      PUSH 20\t\t\t\n      PUSH 0\t\t\t\n      KECCAK256 \t\t\t\n      SWAP1 \t\t\t\n      POP \t\t\t\n      SWAP2 \t\t\t\n      SWAP1 \t\t\t\n      POP \t\t\t\n      JUMP \t\t\t\n    tag 80\t\t\t\n      JUMPDEST \t\t\t\n      PUSH 0\t\t\t\n      PUSH 20\t\t\t\n      PUSH 1F\t\t\t\n      DUP4 \t\t\t\n      ADD \t\t\t\n      DIV \t\t\t\n      SWAP1 \t\t\t\n      POP \t\t\t\n      SWAP2 \t\t\t\n      SWAP1 \t\t\t\n      POP \t\t\t\n      JUMP \t\t\t\n    tag 81\t\t\t\n      JUMPDEST \t\t\t\n      PUSH 0\t\t\t\n      DUP3 \t\t\t\n      DUP3 \t\t\t\n      SHL \t\t\t\n      SWAP1 \t\t\t\n      POP \t\t\t\n      SWAP3 \t\t\t\n      SWAP2 \t\t\t\n      POP \t\t\t\n      POP \t\t\t\n      JUMP \t\t\t\n    tag 82\t\t\t\n      JUMPDEST \t\t\t\n      PUSH 0\t\t\t\n      PUSH 8\t\t\t\n      DUP4 \t\t\t\n      MUL \t\t\t\n      PUSH [tag] 183\t\t\t\n      PUSH FFFFFFFFFFFFFFFFFFFFFFFFFFFFFFFFFFFFFFFFFFFFFFFFFFFFFFFFFFFFFFFF\t\t\t\n      DUP3 \t\t\t\n      PUSH [tag] 81\t\t\t\n      JUMP \t\t\t\n    tag 183\t\t\t\n      JUMPDEST \t\t\t\n      PUSH [tag] 184\t\t\t\n      DUP7 \t\t\t\n      DUP4 \t\t\t\n      PUSH [tag] 81\t\t\t\n      JUMP \t\t\t\n    tag 184\t\t\t\n      JUMPDEST \t\t\t\n      SWAP6 \t\t\t\n      POP \t\t\t\n      DUP1 \t\t\t\n      NOT \t\t\t\n      DUP5 \t\t\t\n      AND \t\t\t\n      SWAP4 \t\t\t\n      POP \t\t\t\n      DUP1 \t\t\t\n      DUP7 \t\t\t\n      AND \t\t\t\n      DUP5 \t\t\t\n      OR \t\t\t\n      SWAP3 \t\t\t\n      POP \t\t\t\n      POP \t\t\t\n      POP \t\t\t\n      SWAP4 \t\t\t\n      SWAP3 \t\t\t\n      POP \t\t\t\n      POP \t\t\t\n      POP \t\t\t\n      JUMP \t\t\t\n    tag 83\t\t\t\n      JUMPDEST \t\t\t\n      PUSH 0\t\t\t\n      DUP2 \t\t\t\n      SWAP1 \t\t\t\n      POP \t\t\t\n      SWAP2 \t\t\t\n      SWAP1 \t\t\t\n      POP \t\t\t\n      JUMP \t\t\t\n    tag 84\t\t\t\n      JUMPDEST \t\t\t\n      PUSH 0\t\t\t\n      PUSH [tag] 187\t\t\t\n      PUSH [tag] 188\t\t\t\n      PUSH [tag] 189\t\t\t\n      DUP5 \t\t\t\n      PUSH [tag] 66\t\t\t\n      JUMP \t\t\t\n    tag 189\t\t\t\n      JUMPDEST \t\t\t\n      PUSH [tag] 83\t\t\t\n      JUMP \t\t\t\n    tag 188\t\t\t\n      JUMPDEST \t\t\t\n      PUSH [tag] 66\t\t\t\n      JUMP \t\t\t\n    tag 187\t\t\t\n      JUMPDEST \t\t\t\n      SWAP1 \t\t\t\n      POP \t\t\t\n      SWAP2 \t\t\t\n      SWAP1 \t\t\t\n      POP \t\t\t\n      JUMP \t\t\t\n    tag 85\t\t\t\n      JUMPDEST \t\t\t\n      PUSH 0\t\t\t\n      DUP2 \t\t\t\n      SWAP1 \t\t\t\n      POP \t\t\t\n      SWAP2 \t\t\t\n      SWAP1 \t\t\t\n      POP \t\t\t\n      JUMP \t\t\t\n    tag 86\t\t\t\n      JUMPDEST \t\t\t\n      PUSH [tag] 192\t\t\t\n      DUP4 \t\t\t\n      PUSH [tag] 84\t\t\t\n      JUMP \t\t\t\n    tag 192\t\t\t\n      JUMPDEST \t\t\t\n      PUSH [tag] 193\t\t\t\n      PUSH [tag] 194\t\t\t\n      DUP3 \t\t\t\n      PUSH [tag] 85\t\t\t\n      JUMP \t\t\t\n    tag 194\t\t\t\n      JUMPDEST \t\t\t\n      DUP5 \t\t\t\n      DUP5 \t\t\t\n      SLOAD \t\t\t\n      PUSH [tag] 82\t\t\t\n      JUMP \t\t\t\n    tag 193\t\t\t\n      JUMPDEST \t\t\t\n      DUP3 \t\t\t\n      SSTORE \t\t\t\n      POP \t\t\t\n      POP \t\t\t\n      POP \t\t\t\n      POP \t\t\t\n      JUMP \t\t\t\n    tag 87\t\t\t\n      JUMPDEST \t\t\t\n      PUSH 0\t\t\t\n      SWAP1 \t\t\t\n      JUMP \t\t\t\n    tag 88\t\t\t\n      JUMPDEST \t\t\t\n      PUSH [tag] 197\t\t\t\n      PUSH [tag] 87\t\t\t\n      JUMP \t\t\t\n    tag 197\t\t\t\n      JUMPDEST \t\t\t\n      PUSH [tag] 198\t\t\t\n      DUP2 \t\t\t\n      DUP5 \t\t\t\n      DUP5 \t\t\t\n      PUSH [tag] 86\t\t\t\n      JUMP \t\t\t\n    tag 198\t\t\t\n      JUMPDEST \t\t\t\n      POP \t\t\t\n      POP \t\t\t\n      POP \t\t\t\n      JUMP \t\t\t\n    tag 89\t\t\t\n      JUMPDEST \t\t\t\n    tag 200\t\t\t\n      JUMPDEST \t\t\t\n      DUP2 \t\t\t\n      DUP2 \t\t\t\n      LT \t\t\t\n      ISZERO \t\t\t\n      PUSH [tag] 202\t\t\t\n      JUMPI \t\t\t\n      PUSH [tag] 203\t\t\t\n      PUSH 0\t\t\t\n      DUP3 \t\t\t\n      PUSH [tag] 88\t\t\t\n      JUMP \t\t\t\n    tag 203\t\t\t\n      JUMPDEST \t\t\t\n      PUSH 1\t\t\t\n      DUP2 \t\t\t\n      ADD \t\t\t\n      SWAP1 \t\t\t\n      POP \t\t\t\n      PUSH [tag] 200\t\t\t\n      JUMP \t\t\t\n    tag 202\t\t\t\n      JUMPDEST \t\t\t\n      POP \t\t\t\n      POP \t\t\t\n      JUMP \t\t\t\n    tag 90\t\t\t\n      JUMPDEST \t\t\t\n      PUSH 1F\t\t\t\n      DUP3 \t\t\t\n      GT \t\t\t\n      ISZERO \t\t\t\n      PUSH [tag] 205\t\t\t\n      JUMPI \t\t\t\n      PUSH [tag] 206\t\t\t\n      DUP2 \t\t\t\n      PUSH [tag] 79\t\t\t\n      JUMP \t\t\t\n    tag 206\t\t\t\n      JUMPDEST \t\t\t\n      PUSH [tag] 207\t\t\t\n      DUP5 \t\t\t\n      PUSH [tag] 80\t\t\t\n      JUMP \t\t\t\n    tag 207\t\t\t\n      JUMPDEST \t\t\t\n      DUP2 \t\t\t\n      ADD \t\t\t\n      PUSH 20\t\t\t\n      DUP6 \t\t\t\n      LT \t\t\t\n      ISZERO \t\t\t\n      PUSH [tag] 208\t\t\t\n      JUMPI \t\t\t\n      DUP2 \t\t\t\n      SWAP1 \t\t\t\n      POP \t\t\t\n    tag 208\t\t\t\n      JUMPDEST \t\t\t\n      PUSH [tag] 209\t\t\t\n      PUSH [tag] 210\t\t\t\n      DUP6 \t\t\t\n      PUSH [tag] 80\t\t\t\n      JUMP \t\t\t\n    tag 210\t\t\t\n      JUMPDEST \t\t\t\n      DUP4 \t\t\t\n      ADD \t\t\t\n      DUP3 \t\t\t\n      PUSH [tag] 89\t\t\t\n      JUMP \t\t\t\n    tag 209\t\t\t\n      JUMPDEST \t\t\t\n      POP \t\t\t\n      POP \t\t\t\n    tag 205\t\t\t\n      JUMPDEST \t\t\t\n      POP \t\t\t\n      POP \t\t\t\n      POP \t\t\t\n      JUMP \t\t\t\n    tag 91\t\t\t\n      JUMPDEST \t\t\t\n      PUSH 0\t\t\t\n      DUP3 \t\t\t\n      DUP3 \t\t\t\n      SHR \t\t\t\n      SWAP1 \t\t\t\n      POP \t\t\t\n      SWAP3 \t\t\t\n      SWAP2 \t\t\t\n      POP \t\t\t\n      POP \t\t\t\n      JUMP \t\t\t\n    tag 92\t\t\t\n      JUMPDEST \t\t\t\n      PUSH 0\t\t\t\n      PUSH [tag] 213\t\t\t\n      PUSH 0\t\t\t\n      NOT \t\t\t\n      DUP5 \t\t\t\n      PUSH 8\t\t\t\n      MUL \t\t\t\n      PUSH [tag] 91\t\t\t\n      JUMP \t\t\t\n    tag 213\t\t\t\n      JUMPDEST \t\t\t\n      NOT \t\t\t\n      DUP1 \t\t\t\n      DUP4 \t\t\t\n      AND \t\t\t\n      SWAP2 \t\t\t\n      POP \t\t\t\n      POP \t\t\t\n      SWAP3 \t\t\t\n      SWAP2 \t\t\t\n      POP \t\t\t\n      POP \t\t\t\n      JUMP \t\t\t\n    tag 93\t\t\t\n      JUMPDEST \t\t\t\n      PUSH 0\t\t\t\n      PUSH [tag] 215\t\t\t\n      DUP4 \t\t\t\n      DUP4 \t\t\t\n      PUSH [tag] 92\t\t\t\n      JUMP \t\t\t\n    tag 215\t\t\t\n      JUMPDEST \t\t\t\n      SWAP2 \t\t\t\n      POP \t\t\t\n      DUP3 \t\t\t\n      PUSH 2\t\t\t\n      MUL \t\t\t\n      DUP3 \t\t\t\n      OR \t\t\t\n      SWAP1 \t\t\t\n      POP \t\t\t\n      SWAP3 \t\t\t\n      SWAP2 \t\t\t\n      POP \t\t\t\n      POP \t\t\t\n      JUMP \t\t\t\n    tag 28\t\t\t\n      JUMPDEST \t\t\t\n      PUSH [tag] 217\t\t\t\n      DUP3 \t\t\t\n      PUSH [tag] 70\t\t\t\n      JUMP \t\t\t\n    tag 217\t\t\t\n      JUMPDEST \t\t\t\n      PUSH FFFFFFFFFFFFFFFF\t\t\t\n      DUP2 \t\t\t\n      GT \t\t\t\n      ISZERO \t\t\t\n      PUSH [tag] 218\t\t\t\n      JUMPI \t\t\t\n      PUSH [tag] 219\t\t\t\n      PUSH [tag] 59\t\t\t\n      JUMP \t\t\t\n    tag 219\t\t\t\n      JUMPDEST \t\t\t\n    tag 218\t\t\t\n      JUMPDEST \t\t\t\n      PUSH [tag] 220\t\t\t\n      DUP3 \t\t\t\n      SLOAD \t\t\t\n      PUSH [tag] 34\t\t\t\n      JUMP \t\t\t\n    tag 220\t\t\t\n      JUMPDEST \t\t\t\n      PUSH [tag] 221\t\t\t\n      DUP3 \t\t\t\n      DUP3 \t\t\t\n      DUP6 \t\t\t\n      PUSH [tag] 90\t\t\t\n      JUMP \t\t\t\n    tag 221\t\t\t\n      JUMPDEST \t\t\t\n      PUSH 0\t\t\t\n      PUSH 20\t\t\t\n      SWAP1 \t\t\t\n      POP \t\t\t\n      PUSH 1F\t\t\t\n      DUP4 \t\t\t\n      GT \t\t\t\n      PUSH 1\t\t\t\n      DUP2 \t\t\t\n      EQ \t\t\t\n      PUSH [tag] 223\t\t\t\n      JUMPI \t\t\t\n      PUSH 0\t\t\t\n      DUP5 \t\t\t\n      ISZERO \t\t\t\n      PUSH [tag] 224\t\t\t\n      JUMPI \t\t\t\n      DUP3 \t\t\t\n      DUP8 \t\t\t\n      ADD \t\t\t\n      MLOAD \t\t\t\n      SWAP1 \t\t\t\n      POP \t\t\t\n    tag 224\t\t\t\n      JUMPDEST \t\t\t\n      PUSH [tag] 225\t\t\t\n      DUP6 \t\t\t\n      DUP3 \t\t\t\n      PUSH [tag] 93\t\t\t\n      JUMP \t\t\t\n    tag 225\t\t\t\n      JUMPDEST \t\t\t\n      DUP7 \t\t\t\n      SSTORE \t\t\t\n      POP \t\t\t\n      PUSH [tag] 222\t\t\t\n      JUMP \t\t\t\n    tag 223\t\t\t\n      JUMPDEST \t\t\t\n      PUSH 1F\t\t\t\n      NOT \t\t\t\n      DUP5 \t\t\t\n      AND \t\t\t\n      PUSH [tag] 226\t\t\t\n      DUP7 \t\t\t\n      PUSH [tag] 79\t\t\t\n      JUMP \t\t\t\n    tag 226\t\t\t\n      JUMPDEST \t\t\t\n      PUSH 0\t\t\t\n    tag 227\t\t\t\n      JUMPDEST \t\t\t\n      DUP3 \t\t\t\n      DUP2 \t\t\t\n      LT \t\t\t\n      ISZERO \t\t\t\n      PUSH [tag] 229\t\t\t\n      JUMPI \t\t\t\n      DUP5 \t\t\t\n      DUP10 \t\t\t\n      ADD \t\t\t\n      MLOAD \t\t\t\n      DUP3 \t\t\t\n      SSTORE \t\t\t\n      PUSH 1\t\t\t\n      DUP3 \t\t\t\n      ADD \t\t\t\n      SWAP2 \t\t\t\n      POP \t\t\t\n      PUSH 20\t\t\t\n      DUP6 \t\t\t\n      ADD \t\t\t\n      SWAP5 \t\t\t\n      POP \t\t\t\n      PUSH 20\t\t\t\n      DUP2 \t\t\t\n      ADD \t\t\t\n      SWAP1 \t\t\t\n      POP \t\t\t\n      PUSH [tag] 227\t\t\t\n      JUMP \t\t\t\n    tag 229\t\t\t\n      JUMPDEST \t\t\t\n      DUP7 \t\t\t\n      DUP4 \t\t\t\n      LT \t\t\t\n      ISZERO \t\t\t\n      PUSH [tag] 230\t\t\t\n      JUMPI \t\t\t\n      DUP5 \t\t\t\n      DUP10 \t\t\t\n      ADD \t\t\t\n      MLOAD \t\t\t\n      PUSH [tag] 231\t\t\t\n      PUSH 1F\t\t\t\n      DUP10 \t\t\t\n      AND \t\t\t\n      DUP3 \t\t\t\n      PUSH [tag] 92\t\t\t\n      JUMP \t\t\t\n    tag 231\t\t\t\n      JUMPDEST \t\t\t\n      DUP4 \t\t\t\n      SSTORE \t\t\t\n      POP \t\t\t\n    tag 230\t\t\t\n      JUMPDEST \t\t\t\n      PUSH 1\t\t\t\n      PUSH 2\t\t\t\n      DUP9 \t\t\t\n      MUL \t\t\t\n      ADD \t\t\t\n      DUP9 \t\t\t\n      SSTORE \t\t\t\n      POP \t\t\t\n      POP \t\t\t\n      POP \t\t\t\n    tag 222\t\t\t\n      JUMPDEST \t\t\t\n      POP \t\t\t\n      POP \t\t\t\n      POP \t\t\t\n      POP \t\t\t\n      POP \t\t\t\n      POP \t\t\t\n      JUMP \t\t\t\n    tag 30\t\t\t\n      JUMPDEST \t\t\t\n      PUSH 0\t\t\t\n      PUSH 40\t\t\t\n      DUP3 \t\t\t\n      ADD \t\t\t\n      SWAP1 \t\t\t\n      POP \t\t\t\n      PUSH [tag] 233\t\t\t\n      PUSH 0\t\t\t\n      DUP4 \t\t\t\n      ADD \t\t\t\n      DUP6 \t\t\t\n      PUSH [tag] 69\t\t\t\n      JUMP \t\t\t\n    tag 233\t\t\t\n      JUMPDEST \t\t\t\n      PUSH [tag] 234\t\t\t\n      PUSH 20\t\t\t\n      DUP4 \t\t\t\n      ADD \t\t\t\n      DUP5 \t\t\t\n      PUSH [tag] 74\t\t\t\n      JUMP \t\t\t\n    tag 234\t\t\t\n      JUMPDEST \t\t\t\n      SWAP4 \t\t\t\n      SWAP3 \t\t\t\n      POP \t\t\t\n      POP \t\t\t\n      POP \t\t\t\n      JUMP \t\t\t\n    tag 43\t\t\t\n      JUMPDEST \t\t\t\n      PUSH 4E487B7100000000000000000000000000000000000000000000000000000000\t\t\t\n      PUSH 0\t\t\t\n      MSTORE \t\t\t\n      PUSH 32\t\t\t\n      PUSH 4\t\t\t\n      MSTORE \t\t\t\n      PUSH 24\t\t\t\n      PUSH 0\t\t\t\n      REVERT \t\t\t\n    .data\n"
}